{"abi":[{"type":"constructor","inputs":[],"stateMutability":"nonpayable"},{"type":"function","name":"approve","inputs":[{"name":"to","type":"address","internalType":"address"},{"name":"tokenId","type":"uint256","internalType":"uint256"}],"outputs":[],"stateMutability":"nonpayable"},{"type":"function","name":"balanceOf","inputs":[{"name":"owner","type":"address","internalType":"address"}],"outputs":[{"name":"","type":"uint256","internalType":"uint256"}],"stateMutability":"view"},{"type":"function","name":"getApproved","inputs":[{"name":"tokenId","type":"uint256","internalType":"uint256"}],"outputs":[{"name":"","type":"address","internalType":"address"}],"stateMutability":"view"},{"type":"function","name":"getUnwrappedInfo","inputs":[{"name":"tokenId","type":"uint256","internalType":"uint256"}],"outputs":[{"name":"","type":"tuple","internalType":"struct UnwrappedPresentNFT.UnwrappedMetadata","components":[{"name":"title","type":"string","internalType":"string"},{"name":"description","type":"string","internalType":"string"},{"name":"imageType","type":"string","internalType":"string"},{"name":"value","type":"uint256","internalType":"uint256"},{"name":"sender","type":"address","internalType":"address"},{"name":"opener","type":"address","internalType":"address"},{"name":"unwrappedAt","type":"uint256","internalType":"uint256"}]}],"stateMutability":"view"},{"type":"function","name":"getUserNFTs","inputs":[{"name":"user","type":"address","internalType":"address"}],"outputs":[{"name":"","type":"uint256[]","internalType":"uint256[]"}],"stateMutability":"view"},{"type":"function","name":"isApprovedForAll","inputs":[{"name":"owner","type":"address","internalType":"address"},{"name":"operator","type":"address","internalType":"address"}],"outputs":[{"name":"","type":"bool","internalType":"bool"}],"stateMutability":"view"},{"type":"function","name":"mint","inputs":[{"name":"to","type":"address","internalType":"address"},{"name":"tokenId","type":"uint256","internalType":"uint256"},{"name":"title","type":"string","internalType":"string"},{"name":"description","type":"string","internalType":"string"},{"name":"imageType","type":"string","internalType":"string"},{"name":"value","type":"uint256","internalType":"uint256"},{"name":"sender","type":"address","internalType":"address"}],"outputs":[],"stateMutability":"nonpayable"},{"type":"function","name":"name","inputs":[],"outputs":[{"name":"","type":"string","internalType":"string"}],"stateMutability":"view"},{"type":"function","name":"ownerOf","inputs":[{"name":"tokenId","type":"uint256","internalType":"uint256"}],"outputs":[{"name":"","type":"address","internalType":"address"}],"stateMutability":"view"},{"type":"function","name":"presentContract","inputs":[],"outputs":[{"name":"","type":"address","internalType":"address"}],"stateMutability":"view"},{"type":"function","name":"safeTransferFrom","inputs":[{"name":"from","type":"address","internalType":"address"},{"name":"to","type":"address","internalType":"address"},{"name":"tokenId","type":"uint256","internalType":"uint256"}],"outputs":[],"stateMutability":"nonpayable"},{"type":"function","name":"safeTransferFrom","inputs":[{"name":"from","type":"address","internalType":"address"},{"name":"to","type":"address","internalType":"address"},{"name":"tokenId","type":"uint256","internalType":"uint256"},{"name":"data","type":"bytes","internalType":"bytes"}],"outputs":[],"stateMutability":"nonpayable"},{"type":"function","name":"setApprovalForAll","inputs":[{"name":"operator","type":"address","internalType":"address"},{"name":"approved","type":"bool","internalType":"bool"}],"outputs":[],"stateMutability":"nonpayable"},{"type":"function","name":"supportsInterface","inputs":[{"name":"interfaceId","type":"bytes4","internalType":"bytes4"}],"outputs":[{"name":"","type":"bool","internalType":"bool"}],"stateMutability":"view"},{"type":"function","name":"symbol","inputs":[],"outputs":[{"name":"","type":"string","internalType":"string"}],"stateMutability":"view"},{"type":"function","name":"tokenByIndex","inputs":[{"name":"index","type":"uint256","internalType":"uint256"}],"outputs":[{"name":"","type":"uint256","internalType":"uint256"}],"stateMutability":"view"},{"type":"function","name":"tokenOfOwnerByIndex","inputs":[{"name":"owner","type":"address","internalType":"address"},{"name":"index","type":"uint256","internalType":"uint256"}],"outputs":[{"name":"","type":"uint256","internalType":"uint256"}],"stateMutability":"view"},{"type":"function","name":"tokenURI","inputs":[{"name":"tokenId","type":"uint256","internalType":"uint256"}],"outputs":[{"name":"","type":"string","internalType":"string"}],"stateMutability":"view"},{"type":"function","name":"totalSupply","inputs":[],"outputs":[{"name":"","type":"uint256","internalType":"uint256"}],"stateMutability":"view"},{"type":"function","name":"transferFrom","inputs":[{"name":"from","type":"address","internalType":"address"},{"name":"to","type":"address","internalType":"address"},{"name":"tokenId","type":"uint256","internalType":"uint256"}],"outputs":[],"stateMutability":"nonpayable"},{"type":"function","name":"unwrappedMetadata","inputs":[{"name":"","type":"uint256","internalType":"uint256"}],"outputs":[{"name":"title","type":"string","internalType":"string"},{"name":"description","type":"string","internalType":"string"},{"name":"imageType","type":"string","internalType":"string"},{"name":"value","type":"uint256","internalType":"uint256"},{"name":"sender","type":"address","internalType":"address"},{"name":"opener","type":"address","internalType":"address"},{"name":"unwrappedAt","type":"uint256","internalType":"uint256"}],"stateMutability":"view"},{"type":"event","name":"Approval","inputs":[{"name":"owner","type":"address","indexed":true,"internalType":"address"},{"name":"approved","type":"address","indexed":true,"internalType":"address"},{"name":"tokenId","type":"uint256","indexed":true,"internalType":"uint256"}],"anonymous":false},{"type":"event","name":"ApprovalForAll","inputs":[{"name":"owner","type":"address","indexed":true,"internalType":"address"},{"name":"operator","type":"address","indexed":true,"internalType":"address"},{"name":"approved","type":"bool","indexed":false,"internalType":"bool"}],"anonymous":false},{"type":"event","name":"BatchMetadataUpdate","inputs":[{"name":"_fromTokenId","type":"uint256","indexed":false,"internalType":"uint256"},{"name":"_toTokenId","type":"uint256","indexed":false,"internalType":"uint256"}],"anonymous":false},{"type":"event","name":"MetadataUpdate","inputs":[{"name":"_tokenId","type":"uint256","indexed":false,"internalType":"uint256"}],"anonymous":false},{"type":"event","name":"Transfer","inputs":[{"name":"from","type":"address","indexed":true,"internalType":"address"},{"name":"to","type":"address","indexed":true,"internalType":"address"},{"name":"tokenId","type":"uint256","indexed":true,"internalType":"uint256"}],"anonymous":false},{"type":"error","name":"ERC721EnumerableForbiddenBatchMint","inputs":[]},{"type":"error","name":"ERC721IncorrectOwner","inputs":[{"name":"sender","type":"address","internalType":"address"},{"name":"tokenId","type":"uint256","internalType":"uint256"},{"name":"owner","type":"address","internalType":"address"}]},{"type":"error","name":"ERC721InsufficientApproval","inputs":[{"name":"operator","type":"address","internalType":"address"},{"name":"tokenId","type":"uint256","internalType":"uint256"}]},{"type":"error","name":"ERC721InvalidApprover","inputs":[{"name":"approver","type":"address","internalType":"address"}]},{"type":"error","name":"ERC721InvalidOperator","inputs":[{"name":"operator","type":"address","internalType":"address"}]},{"type":"error","name":"ERC721InvalidOwner","inputs":[{"name":"owner","type":"address","internalType":"address"}]},{"type":"error","name":"ERC721InvalidReceiver","inputs":[{"name":"receiver","type":"address","internalType":"address"}]},{"type":"error","name":"ERC721InvalidSender","inputs":[{"name":"sender","type":"address","internalType":"address"}]},{"type":"error","name":"ERC721NonexistentToken","inputs":[{"name":"tokenId","type":"uint256","internalType":"uint256"}]},{"type":"error","name":"ERC721OutOfBoundsIndex","inputs":[{"name":"owner","type":"address","internalType":"address"},{"name":"index","type":"uint256","internalType":"uint256"}]},{"type":"error","name":"StringsInsufficientHexLength","inputs":[{"name":"value","type":"uint256","internalType":"uint256"},{"name":"length","type":"uint256","internalType":"uint256"}]}],"bytecode":{"object":"0x608060405234610027576100116101e3565b61001961002c565b6151b461049982396151b490f35b610032565b60405190565b5f80fd5b601f801991011690565b634e487b7160e01b5f52604160045260245ffd5b9061005e90610036565b810190811060018060401b0382111761007657604052565b610040565b9061008e61008761002c565b9283610054565b565b60018060401b0381116100ac576100a8602091610036565b0190565b610040565b906100c36100be83610090565b61007b565b918252565b5f7f556e7772617070656450726573656e7400000000000000000000000000000000910152565b6100f960106100b1565b90610106602083016100c8565b565b6101106100ef565b90565b5f7f5550000000000000000000000000000000000000000000000000000000000000910152565b61014460026100b1565b9061015160208301610113565b565b61015b61013a565b90565b5f1b90565b9061017460018060a01b039161015e565b9181191691161790565b60018060a01b031690565b90565b6101a061019b6101a59261017e565b610189565b61017e565b90565b6101b19061018c565b90565b6101bd906101a8565b90565b90565b906101d86101d36101df926101b4565b6101c0565b8254610163565b9055565b6101fc6101ee610108565b6101f6610153565b90610209565b61020733600b6101c3565b565b9061021391610215565b565b9061021f91610221565b565b9061022b91610481565b565b5190565b634e487b7160e01b5f52602260045260245ffd5b9060016002830492168015610265575b602083101461026057565b610231565b91607f1691610255565b5f5260205f2090565b601f602091010490565b1b90565b919060086102a191029161029b5f1984610282565b92610282565b9181191691161790565b90565b6102c26102bd6102c7926102ab565b610189565b6102ab565b90565b90565b91906102e36102de6102eb936102ae565b6102ca565b908354610286565b9055565b5f90565b610305916102ff6102ef565b916102cd565b565b5b818110610313575050565b806103205f6001936102f3565b01610308565b9190601f8111610336575b505050565b6103426103679361026f565b90602061034e84610278565b8301931061036f575b61036090610278565b0190610307565b5f8080610331565b915061036081929050610357565b1c90565b90610391905f199060080261037d565b191690565b816103a091610381565b906002021790565b906103b28161022d565b9060018060401b038211610470576103d4826103ce8554610245565b85610326565b602090601f8311600114610408579180916103f7935f926103fc575b5050610396565b90555b565b90915001515f806103f0565b601f198316916104178561026f565b925f5b8181106104585750916002939185600196941061043e575b505050020190556103fa565b61044e910151601f841690610381565b90555f8080610432565b9193602060018192878701518155019501920161041a565b610040565b9061047f916103a8565b565b9061048f610496925f610475565b6001610475565b56fe60806040526004361015610013575b610f40565b61001d5f3561016c565b806301ffc9a71461016757806306fdde0314610162578063081812fc1461015d578063095ea7b31461015857806318160ddd1461015357806323b872dd1461014e5780632f745c59146101495780633146a9101461014457806342842e0e1461013f5780634675a5101461013a5780634f6ccce71461013557806352de4ee5146101305780636352211e1461012b57806370a0823114610126578063754ba4551461012157806395d89b411461011c578063981be89914610117578063a22cb46514610112578063b88d4fde1461010d578063c87b56dd146101085763e985e9c50361000e57610f0a565b610ea8565b610e71565b610d62565b610cdd565b610bc5565b610b8b565b6109fa565b6109c5565b610990565b61089e565b610862565b61058b565b610556565b6104dc565b6104a8565b610439565b6103e3565b610359565b6102a7565b6101f8565b60e01c90565b60405190565b5f80fd5b5f80fd5b5f80fd5b63ffffffff60e01b1690565b61019981610184565b036101a057565b5f80fd5b905035906101b182610190565b565b906020828203126101cc576101c9915f016101a4565b90565b61017c565b151590565b6101df906101d1565b9052565b91906101f6905f602085019401906101d6565b565b346102285761022461021361020e3660046101b3565b610f48565b61021b610172565b918291826101e3565b0390f35b610178565b5f91031261023757565b61017c565b5190565b60209181520190565b90825f9392825e0152565b601f801991011690565b61027d61028660209361028b936102748161023c565b93848093610240565b95869101610249565b610254565b0190565b6102a49160208201915f81840391015261025e565b90565b346102d7576102b736600461022d565b6102d36102c2610f6e565b6102ca610172565b9182918261028f565b0390f35b610178565b90565b6102e8816102dc565b036102ef57565b5f80fd5b90503590610300826102df565b565b9060208282031261031b57610318915f016102f3565b90565b61017c565b60018060a01b031690565b61033490610320565b90565b6103409061032b565b9052565b9190610357905f60208501940190610337565b565b346103895761038561037461036f366004610302565b610f87565b61037c610172565b91829182610344565b0390f35b610178565b6103978161032b565b0361039e57565b5f80fd5b905035906103af8261038e565b565b91906040838203126103d957806103cd6103d6925f86016103a2565b936020016102f3565b90565b61017c565b5f0190565b34610412576103fc6103f63660046103b1565b90610fa6565b610404610172565b8061040e816103de565b0390f35b610178565b610420906102dc565b9052565b9190610437905f60208501940190610417565b565b346104695761044936600461022d565b610465610454610fc4565b61045c610172565b91829182610424565b0390f35b610178565b90916060828403126104a3576104a0610489845f85016103a2565b9361049781602086016103a2565b936040016102f3565b90565b61017c565b346104d7576104c16104bb36600461046e565b91611037565b6104c9610172565b806104d3816103de565b0390f35b610178565b3461050d576105096104f86104f23660046103b1565b90611155565b610500610172565b91829182610424565b0390f35b610178565b1c90565b60018060a01b031690565b6105319060086105369302610512565b610516565b90565b906105449154610521565b90565b610553600b5f90610539565b90565b346105865761056636600461022d565b610582610571610547565b610579610172565b91829182610344565b0390f35b610178565b346105ba576105a461059e36600461046e565b916111ea565b6105ac610172565b806105b6816103de565b0390f35b610178565b90565b6105d66105d16105db926102dc565b6105bf565b6102dc565b90565b906105e8906105c2565b5f5260205260405f2090565b634e487b7160e01b5f52602260045260245ffd5b9060016002830492168015610628575b602083101461062357565b6105f4565b91607f1691610618565b60209181520190565b5f5260205f2090565b905f929180549061065e61065783610608565b8094610632565b916001811690815f146106b55750600114610679575b505050565b610686919293945061063b565b915f925b81841061069d57505001905f8080610674565b6001816020929593955484860152019101929061068a565b92949550505060ff19168252151560200201905f8080610674565b906106da91610644565b90565b634e487b7160e01b5f52604160045260245ffd5b906106fb90610254565b810190811067ffffffffffffffff82111761071557604052565b6106dd565b9061073a6107339261072a610172565b938480926106d0565b03836106f1565b565b5f1c90565b90565b6107506107559161073c565b610741565b90565b6107629054610744565b90565b6107716107769161073c565b610516565b90565b6107839054610765565b90565b61079190600c6105de565b61079c5f820161071a565b916107a96001830161071a565b916107b66002820161071a565b916107c360038301610758565b916107d060048201610779565b916107e960066107e260058501610779565b9301610758565b90565b9260c09498979561084561083a61084f9361082c6108599761081e6108609d9860e08c01908c5f81840391015261025e565b908a820360208c015261025e565b9088820360408a015261025e565b9a6060870190610417565b6080850190610337565b60a0830190610337565b0190610417565b565b346108995761089561087d610878366004610302565b610786565b9361088c979597939193610172565b978897886107ec565b0390f35b610178565b346108ce576108ca6108b96108b4366004610302565b61126b565b6108c1610172565b91829182610424565b0390f35b610178565b906020828203126108ec576108e9915f016103a2565b90565b61017c565b5190565b60209181520190565b60200190565b61090d906102dc565b9052565b9061091e81602093610904565b0190565b60200190565b9061094561093f610938846108f1565b80936108f5565b926108fe565b905f5b8181106109555750505090565b90919261096e6109686001928651610911565b94610922565b9101919091610948565b61098d9160208201915f818403910152610928565b90565b346109c0576109bc6109ab6109a63660046108d3565b611390565b6109b3610172565b91829182610978565b0390f35b610178565b346109f5576109f16109e06109db366004610302565b611406565b6109e8610172565b91829182610344565b0390f35b610178565b34610a2a57610a26610a15610a103660046108d3565b611431565b610a1d610172565b91829182610424565b0390f35b610178565b5f80fd5b5f80fd5b90610a4a610a43610172565b92836106f1565b565b67ffffffffffffffff8111610a6a57610a66602091610254565b0190565b6106dd565b90825f939282370152565b90929192610a8f610a8a82610a4c565b610a37565b93818552602085019082840111610aab57610aa992610a6f565b565b610a33565b9080601f83011215610ace57816020610acb93359101610a7a565b90565b610a2f565b60e081830312610b8657610ae9825f83016103a2565b92610af783602084016102f3565b92604083013567ffffffffffffffff8111610b815781610b18918501610ab0565b92606081013567ffffffffffffffff8111610b7c5782610b39918301610ab0565b92608082013567ffffffffffffffff8111610b7757610b5d84610b74928501610ab0565b93610b6b8160a086016102f3565b9360c0016103a2565b90565b610180565b610180565b610180565b61017c565b34610bc057610baa610b9e366004610ad3565b95949094939193611996565b610bb2610172565b80610bbc816103de565b0390f35b610178565b34610bf557610bd536600461022d565b610bf1610be0611ac2565b610be8610172565b9182918261028f565b0390f35b610178565b610c19610c22602093610c2793610c108161023c565b93848093610632565b95869101610249565b610254565b0190565b610c349061032b565b9052565b90610cc29060c080610c81610c6f610c5d60e086015f8901518782035f890152610bfa565b60208801518682036020880152610bfa565b60408701518582036040870152610bfa565b94610c9460608201516060860190610904565b610ca660808201516080860190610c2b565b610cb860a082015160a0860190610c2b565b0151910190610904565b90565b610cda9160208201915f818403910152610c38565b90565b34610d0d57610d09610cf8610cf3366004610302565b611c9e565b610d00610172565b91829182610cc5565b0390f35b610178565b610d1b816101d1565b03610d2257565b5f80fd5b90503590610d3382610d12565b565b9190604083820312610d5d5780610d51610d5a925f86016103a2565b93602001610d26565b90565b61017c565b34610d9157610d7b610d75366004610d35565b90611cea565b610d83610172565b80610d8d816103de565b0390f35b610178565b67ffffffffffffffff8111610db457610db0602091610254565b0190565b6106dd565b90929192610dce610dc982610d96565b610a37565b93818552602085019082840111610dea57610de892610a6f565b565b610a33565b9080601f83011215610e0d57816020610e0a93359101610db9565b90565b610a2f565b90608082820312610e6c57610e29815f84016103a2565b92610e3782602085016103a2565b92610e4583604083016102f3565b92606082013567ffffffffffffffff8111610e6757610e649201610def565b90565b610180565b61017c565b34610ea357610e8d610e84366004610e12565b92919091611d00565b610e95610172565b80610e9f816103de565b0390f35b610178565b34610ed857610ed4610ec3610ebe366004610302565b611d26565b610ecb610172565b9182918261028f565b0390f35b610178565b9190604083820312610f055780610ef9610f02925f86016103a2565b936020016103a2565b90565b61017c565b34610f3b57610f37610f26610f20366004610edd565b90611d8e565b610f2e610172565b918291826101e3565b0390f35b610178565b5f80fd5b5f90565b610f5a90610f54610f44565b50611db6565b90565b606090565b610f6b9061071a565b90565b610f76610f5d565b50610f805f610f62565b90565b5f90565b610fa390610f93610f83565b50610f9d81611df6565b50611e62565b90565b90610fba9190610fb4611e81565b91611e8e565b565b5f90565b5490565b610fcc610fbc565b50610fd76009610fc0565b90565b90565b610ff1610fec610ff692610fda565b6105bf565b610320565b90565b61100290610fdd565b90565b60409061102e611035949695939661102460608401985f850190610337565b6020830190610417565b0190610337565b565b91908061105461104e6110495f610ff9565b61032b565b9161032b565b146110ab5761106c9082611066611e81565b91611e9e565b918261108061107a8361032b565b9161032b565b0361108a57505050565b6110a79091925f9384936364283d7b60e01b855260048501611005565b0390fd5b6110ce6110b75f610ff9565b5f918291633250574960e11b835260048301610344565b0390fd5b9160206110f39294936110ec60408201965f830190610337565b0190610417565b565b61110961110461110e92610320565b6105bf565b610320565b90565b61111a906110f5565b90565b61112690611111565b90565b906111339061111d565b5f5260205260405f2090565b90611149906105c2565b5f5260205260405f2090565b61115d610fbc565b508161117961117361116e84611431565b6102dc565b916102dc565b101561119e5761119b91611191611196926007611129565b61113f565b610758565b90565b6111b85f92839263295f44f760e21b8452600484016110d2565b0390fd5b906111ce6111c983610a4c565b610a37565b918252565b6111dc5f6111bc565b90565b6111e76111d3565b90565b916111fe92916111f86111df565b92611d00565b565b634e487b7160e01b5f52603260045260245ffd5b5f5260205f2090565b61122681610fc0565b82101561124057611238600191611214565b910201905f90565b611200565b61125590600861125a9302610512565b610741565b90565b906112689154611245565b90565b611273610fbc565b508061128e611288611283610fc4565b6102dc565b916102dc565b10156112ab576112a26112a891600961121d565b9061125d565b90565b6112b45f610ff9565b6112ce5f92839263295f44f760e21b8452600484016110d2565b0390fd5b606090565b67ffffffffffffffff81116112ef5760208091020190565b6106dd565b90611306611301836112d7565b610a37565b918252565b369037565b9061133561131d836112f4565b9260208061132b86936112d7565b920191039061130b565b565b61134b61134661135092610fda565b6105bf565b6102dc565b90565b600161135f91016102dc565b90565b9061136c826108f1565b81101561137d576020809102010190565b611200565b9061138c906102dc565b9052565b906113996112d2565b506113a382611431565b916113ad83611310565b916113b75f611337565b5b806113cb6113c5876102dc565b916102dc565b10156113ff576113fa906113f56113e3858390611155565b6113f08791849092611362565b611382565b611353565b6113b8565b5092505090565b61141890611412610f83565b50611df6565b90565b906114259061111d565b5f5260205260405f2090565b611439610fbc565b508061145561144f61144a5f610ff9565b61032b565b9161032b565b146114705761146861146d91600361141b565b610758565b90565b61149361147c5f610ff9565b5f9182916322718ad960e21b835260048301610344565b0390fd5b5f7f4f6e6c792070726573656e7420636f6e74726163742063616e206d696e740000910152565b6114cb601e602092610240565b6114d481611497565b0190565b6114ed9060208101905f8183039101526114be565b90565b156114f757565b6114ff610172565b62461bcd60e51b815280611515600482016114d8565b0390fd5b905090565b5f7f4f70656e65643a20000000000000000000000000000000000000000000000000910152565b61155160088092611519565b61155a8161151e565b0190565b61158361157a926020926115718161023c565b94858093611519565b93849101610249565b0190565b9061159461159a92611545565b9061155e565b90565b90565b5f7f556e7772617070656420676966743a2000000000000000000000000000000000910152565b6115d360108092611519565b6115dc816115a0565b0190565b906115ed6115f3926115c7565b9061155e565b90565b61160060e0610a37565b90565b52565b5f7f756e777261707065640000000000000000000000000000000000000000000000910152565b61163760096111bc565b9061164460208301611606565b565b61164e61162d565b90565b9061165b9061032b565b9052565b5190565b601f602091010490565b1b90565b9190600861168c9102916116865f198461166d565b9261166d565b9181191691161790565b90565b91906116af6116aa6116b7936105c2565b611696565b908354611671565b9055565b6116cd916116c7610fbc565b91611699565b565b5b8181106116db575050565b806116e85f6001936116bb565b016116d0565b9190601f81116116fe575b505050565b61170a61172f9361063b565b90602061171684611663565b83019310611737575b61172890611663565b01906116cf565b5f80806116f9565b91506117288192905061171f565b90611755905f1990600802610512565b191690565b8161176491611745565b906002021790565b906117768161023c565b9067ffffffffffffffff82116118365761179a826117948554610608565b856116ee565b602090601f83116001146117ce579180916117bd935f926117c2575b505061175a565b90555b565b90915001515f806117b6565b601f198316916117dd8561063b565b925f5b81811061181e57509160029391856001969410611804575b505050020190556117c0565b611814910151601f841690611745565b90555f80806117f8565b919360206001819287870151815501950192016117e0565b6106dd565b906118459161176c565b565b61185190516102dc565b90565b5f1b90565b906118655f1991611854565b9181191691161790565b9061188461187f61188b926105c2565b611696565b8254611859565b9055565b611899905161032b565b90565b906118ad60018060a01b0391611854565b9181191691161790565b90565b906118cf6118ca6118d69261111d565b6118b7565b825461189c565b9055565b9061198260c06006611988946118fd5f82016118f75f880161165f565b9061183b565b611916600182016119106020880161165f565b9061183b565b61192f600282016119296040880161165f565b9061183b565b6119486003820161194260608801611847565b9061186f565b6119616004820161195b6080880161188f565b906118ba565b61197a6005820161197460a0880161188f565b906118ba565b019201611847565b9061186f565b565b90611994916118da565b565b929094611ab19450611a9990611a90611ac098611a87611a38611a24611a33611a0f6119fb611a0a611aaa9c6119e7336119e16119db6119d6600b610779565b61032b565b9161032b565b146114f0565b6119ef610172565b92839160208301611587565b602082018103825203826106f1565b61159d565b98611a18610172565b928391602083016115e0565b602082018103825203826106f1565b61159d565b9391611a7e8993611a614297611a58611a4f6115f6565b9b5f8d01611603565b60208b01611603565b611a75611a6c611646565b60408b01611603565b60608901611382565b60808701611651565b60a08501611651565b60c08301611382565b611aa5600c86906105de565b61198a565b8290611eb7565b611aba81612455565b90612584565b565b611aca610f5d565b50611ad56001610f62565b90565b611ae260e0610a37565b90565b606090565b5f90565b5f90565b611afa611ad8565b90602080808080808088611b0c611ae5565b815201611b17611ae5565b815201611b22611ae5565b815201611b2d611aea565b815201611b38611aee565b815201611b43611aee565b815201611b4e611aea565b81525050565b611b5c611af2565b90565b5f7f4e465420646f6573206e6f742065786973740000000000000000000000000000910152565b611b936012602092610240565b611b9c81611b5f565b0190565b611bb59060208101905f818303910152611b86565b90565b15611bbf57565b611bc7610172565b62461bcd60e51b815280611bdd60048201611ba0565b0390fd5b90611c90611c876006611bf2611ad8565b94611c09611c015f830161071a565b5f8801611603565b611c21611c186001830161071a565b60208801611603565b611c39611c306002830161071a565b60408801611603565b611c51611c4860038301610758565b60608801611382565b611c69611c6060048301610779565b60808801611651565b611c81611c7860058301610779565b60a08801611651565b01610758565b60c08401611382565b565b611c9b90611be1565b90565b611ce2611ce791611cad611b54565b50611cdb611cba826125d5565b611cd4611cce611cc95f610ff9565b61032b565b9161032b565b1415611bb8565b600c6105de565b611c92565b90565b611cfe91611cf6611e81565b919091612639565b565b91611d249391611d1284828491611037565b611d1a611e81565b9390919293612807565b565b611d3890611d32610f5d565b5061299f565b90565b90611d459061111d565b5f5260205260405f2090565b90611d5b9061111d565b5f5260205260405f2090565b60ff1690565b611d79611d7e9161073c565b611d67565b90565b611d8b9054611d6d565b90565b611db391611da9611dae92611da1610f44565b506005611d3b565b611d51565b611d81565b90565b611dbe610f44565b5080611dd9611dd363780e9d6360e01b610184565b91610184565b14908115611de6575b5090565b611df09150612a6e565b5f611de2565b611dfe610f83565b50611e08816125d5565b9081611e24611e1e611e195f610ff9565b61032b565b9161032b565b14611e2d575090565b611e48905f918291637e27328960e01b835260048301610424565b0390fd5b90611e56906105c2565b5f5260205260405f2090565b611e79611e7e91611e71610f83565b506004611e4c565b610779565b90565b611e89610f83565b503390565b91611e9c9291600192612aae565b565b91611eb492611eab610f83565b50919091612bf8565b90565b9081611ed3611ecd611ec85f610ff9565b61032b565b9161032b565b14611f3457611eec9190611ee65f610ff9565b91611e9e565b611f06611f00611efb5f610ff9565b61032b565b9161032b565b03611f0d57565b611f30611f195f610ff9565b5f9182916339e3563760e11b835260048301610344565b0390fd5b611f57611f405f610ff9565b5f918291633250574960e11b835260048301610344565b0390fd5b90565b611f67906110f5565b90565b611f7e611f79611f8392610320565b6105bf565b6102dc565b90565b5f693d913730b6b2911d101160b11b910152565b611fa6600a8092611519565b611faf81611f86565b0190565b5f61088b60f21b910152565b611fcb60028092611519565b611fd481611fb3565b0190565b5f6f113232b9b1b934b83a34b7b7111d101160811b910152565b611ffe60108092611519565b61200781611fd8565b0190565b60207f6536342c00000000000000000000000000000000000000000000000000000000917f22696d616765223a2022646174613a696d6167652f7376672b786d6c3b6261735f8201520152565b61206460248092611519565b61206d8161200b565b0190565b5f6e2261747472696275746573223a205b60881b910152565b612096600f8092611519565b61209f81612071565b0190565b7f7b2274726169745f74797065223a2022537461747573222c202276616c7565225f82015260206e0e8808955b9ddc985c1c1959089f4b608a1b910152565b6120ee602f8092611519565b6120f7816120a3565b0190565b7f7b2274726169745f74797065223a20224f726967696e616c2056616c7565222c5f820152602069010113b30b63ab2911d160b51b910152565b612141602a8092611519565b61214a816120fb565b0190565b5f7f7d2c000000000000000000000000000000000000000000000000000000000000910152565b61218160028092611519565b61218a8161214e565b0190565b7f7b2274726169745f74797065223a20224f726967696e616c2053656e646572225f82015260206b1610113b30b63ab2911d101160a11b910152565b6121d6602c8092611519565b6121df8161218e565b0190565b5f62089f4b60ea1b910152565b6121fc60038092611519565b612205816121e3565b0190565b7f7b2274726169745f74797065223a20224f70656e6564204279222c202276616c5f8201526020653ab2911d101160d11b910152565b61224b60268092611519565b61225481612209565b0190565b7f7b2274726169745f74797065223a2022556e77726170706564204174222c20225f82015260206703b30b63ab2911d160c51b910152565b61229c60288092611519565b6122a581612258565b0190565b5f7f7d00000000000000000000000000000000000000000000000000000000000000910152565b6122dc60018092611519565b6122e5816122a9565b0190565b5f7f5d7d000000000000000000000000000000000000000000000000000000000000910152565b61231c60028092611519565b612325816122e9565b0190565b956123dc6123d76123d26123f2986123cc6123c76123c26123fc9e9b6123bc6123f79f6123b26123ad6123ec9f6123e79f906123e29f61239d6123986123a89461239261238d6123886123a2966123826123b79d611f9a565b9061155e565b611fbf565b611ff2565b9061155e565b611fbf565b612058565b9061155e565b611fbf565b61208a565b6120e2565b612135565b9061155e565b612175565b6121ca565b9061155e565b6121f0565b61223f565b9061155e565b6121f0565b612290565b9061155e565b6122d0565b612310565b90565b5f7f646174613a6170706c69636174696f6e2f6a736f6e3b6261736536342c000000910152565b612432601d8092611519565b61243b816123ff565b0190565b9061244c61245292612426565b9061155e565b90565b61255761256661254361247d61247861256b95612470610f5d565b50600c6105de565b611c92565b61253e61248982613cc9565b9161252f5f820151916124a86124a3602083015196611f5b565b613e12565b906124bd6124b860608301611847565b613eef565b6124e16124dc6124d76124d26080860161188f565b611f5e565b611f6a565b613f98565b9061251a61251560c061250e6125096125046124ff60a08a0161188f565b611f5e565b611f6a565b613f98565b9501611847565b613eef565b93612523610172565b98899760208901612329565b602082018103825203826106f1565b613e12565b61254b610172565b9283916020830161243f565b602082018103825203826106f1565b61159d565b90565b90612578906105c2565b5f5260205260405f2090565b9061259a906125956006849061256e565b61183b565b6125d07ff8e1a15aba9398e019f0b49df1a4fde98ee17ae345cb5f6b5e2c27f5033e8ce7916125c7610172565b91829182610424565b0390a1565b6125ec6125f1916125e4610f83565b506002611e4c565b610779565b90565b9061260060ff91611854565b9181191691161790565b612613906101d1565b90565b90565b9061262e6126296126359261260a565b612616565b82546125f4565b9055565b9190918261265761265161264c5f610ff9565b61032b565b9161032b565b146126cb5761267b8261267661266f60058590611d3b565b8690611d51565b612619565b9190916126c66126b46126ae7f17307eab39ab6107e8899845ad3d59bd9653f200f220920489ca2b5937696c319361111d565b9361111d565b936126bd610172565b918291826101e3565b0390a3565b6126e6835f918291630b61174360e31b835260048301610344565b0390fd5b6126f3906110f5565b90565b6126ff906126ea565b90565b61270b90611111565b90565b60e01b90565b9050519061272182610190565b565b9060208282031261273c57612739915f01612714565b90565b61017c565b5190565b60209181520190565b61276d61277660209361277b9361276481612741565b93848093612745565b95869101610249565b610254565b0190565b90926127b2906127a86127bf969461279e60808601975f870190610337565b6020850190610337565b6040830190610417565b606081840391015261274e565b90565b906127d46127cf83610d96565b610a37565b918252565b606090565b3d5f146127f9576127ee3d6127c2565b903d5f602084013e5b565b6128016127d9565b906127f7565b9193843b61281d6128175f611337565b916102dc565b1161282a575b5050505050565b6128625f60209461286d6128456128408a6126f6565b612702565b9463150b7a02929698612856610172565b998a988997889661270e565b86526004860161277f565b03925af180915f9261292b575b50155f146128e85750600161289557505b5f80808080612823565b61289d6127de565b906128a782612741565b6128b96128b35f611337565b916102dc565b145f146128df576128db905f918291633250574960e11b835260048301610344565b0390fd5b50602081519101fd5b6129016128fb630a85bd0160e11b610184565b91610184565b0361290c575061288b565b612927905f918291633250574960e11b835260048301610344565b0390fd5b61294d91925060203d8111612954575b61294581836106f1565b810190612723565b905f61287a565b503d61293b565b6129699061296f939261155e565b9061155e565b90565b612991929161299d91612983610172565b94859260208401928361295b565b908103825203836106f1565b565b6129a7610f5d565b506129b181611df6565b506129c66129c16006839061256e565b610f62565b6129ce613fd5565b6129df6129da82611f5b565b612741565b6129f16129eb5f611337565b916102dc565b14612a3957612a07612a0283611f5b565b612741565b612a19612a135f611337565b916102dc565b11612a2c575050612a2990613fe9565b90565b612a369250612972565b90565b50905090565b90565b612a56612a51612a5b92612a3f565b61270e565b610184565b90565b612a6b6349064906612a42565b90565b612a76610f44565b5080612a91612a8b612a86612a5e565b610184565b91610184565b14908115612a9e575b5090565b612aa89150614055565b5f612a9a565b919092808015612bd5575b612ad7575b505090612ad0612ad592916004611e4c565b6118ba565b565b612ae084611df6565b9180612afc612af6612af15f610ff9565b61032b565b9161032b565b141580612bba575b80612ba0575b612b81575091612ad091612ad59493612b26575b509192612abe565b818490612b65612b5f612b597f8c5be1e5ebec7d5bd14f71427d1e84f3dd0314c0f7b2291e5b200ac8c7c3b9259561111d565b9261111d565b926105c2565b92612b6e610172565b80612b78816103de565b0390a45f612b1e565b612b9c905f91829163a9fbf51f60e01b835260048301610344565b0390fd5b50612bb5612baf848390611d8e565b156101d1565b612b0a565b5082612bce612bc88361032b565b9161032b565b1415612b04565b5081612bf1612beb612be65f610ff9565b61032b565b9161032b565b1415612ab9565b9091612c1190612c06610f83565b5082908490916140cb565b9182612c2d612c27612c225f610ff9565b61032b565b9161032b565b145f14612c9e57612c3d81614367565b5b81612c59612c53612c4e5f610ff9565b61032b565b9161032b565b145f14612c6e57612c6a9150614468565b5b90565b82612c81612c7b8461032b565b9161032b565b03612c8e575b5050612c6b565b612c97916143d3565b5f80612c87565b82612cb1612cab8461032b565b9161032b565b03612cbc575b612c3e565b612cc783829061424c565b612cb7565b5f7f2338453845384500000000000000000000000000000000000000000000000000910152565b612cfd60076111bc565b90612d0a60208301612ccc565b565b612d14612cf3565b90565b5f7f2342384238423800000000000000000000000000000000000000000000000000910152565b612d4860076111bc565b90612d5560208301612d17565b565b612d5f612d3e565b90565b5f7f2346464437303000000000000000000000000000000000000000000000000000910152565b612d9360076111bc565b90612da060208301612d62565b565b612daa612d89565b90565b60407f3e00000000000000000000000000000000000000000000000000000000000000917f3c7376672077696474683d2233353022206865696768743d223335302220786d5f8201527f6c6e733d22687474703a2f2f7777772e77332e6f72672f323030302f7376672260208201520152565b612e2c60418092611519565b612e3581612dad565b0190565b5f7f3c646566733e0000000000000000000000000000000000000000000000000000910152565b612e6c60068092611519565b612e7581612e39565b0190565b60207f222079313d223025222078323d2231303025222079323d2231303025223e0000917f3c6c696e6561724772616469656e742069643d2267726164222078313d2230255f8201520152565b612ed2603e8092611519565b612edb81612e79565b0190565b5f7f3c73746f70206f66667365743d223025222073746f702d636f6c6f723d220000910152565b612f12601e8092611519565b612f1b81612edf565b0190565b5f6211179f60e91b910152565b612f3860038092611519565b612f4181612f1f565b0190565b5f7f3c73746f70206f66667365743d2231303025222073746f702d636f6c6f723d22910152565b612f7860208092611519565b612f8181612f45565b0190565b5f7f3c2f6c696e6561724772616469656e743e000000000000000000000000000000910152565b612fb860118092611519565b612fc181612f85565b0190565b7f3c7061747465726e2069643d226f70656e5061747465726e22207061747465725f8201527f6e556e6974733d227573657253706163654f6e557365222077696474683d2232602082015260406e1811103432b4b3b43a1e911918111f60891b910152565b613036604f8092611519565b61303f81612fc5565b0190565b7f3c726563742077696474683d22323022206865696768743d223230222066696c5f820152602070361e913737b732911039ba3937b5b29e9160791b910152565b61309060318092611519565b61309981613043565b0190565b60207f2f3e000000000000000000000000000000000000000000000000000000000000917f22207374726f6b652d77696474683d223122206f7061636974793d22302e33225f8201520152565b6130f660228092611519565b6130ff8161309d565b0190565b5f7f3c2f7061747465726e3e00000000000000000000000000000000000000000000910152565b613136600a8092611519565b61313f81613103565b0190565b5f7f3c2f646566733e00000000000000000000000000000000000000000000000000910152565b61317660078092611519565b61317f81613143565b0190565b60207f696c6c3d2275726c28236772616429222072783d223230222f3e000000000000917f3c726563742077696474683d2233353022206865696768743d223335302220665f8201520152565b6131dc603a8092611519565b6131e581613183565b0190565b60407f3e00000000000000000000000000000000000000000000000000000000000000917f3c726563742077696474683d2233353022206865696768743d223335302220665f8201527f696c6c3d2275726c28236f70656e5061747465726e29222072783d223230222f60208201520152565b61326860418092611519565b613271816131e9565b0190565b7f3c7265637420783d2236352220793d22313630222077696474683d22323230225f8201527f206865696768743d22313430222066696c6c3d22776869746522207374726f6b6020820152604062329e9160e91b910152565b6132da60438092611519565b6132e381613275565b0190565b60207f666f726d3d22726f746174652832203137352032333029222f3e000000000000917f22207374726f6b652d77696474683d2233222072783d22313022207472616e735f8201520152565b613340603a8092611519565b613349816132e7565b0190565b7f3c7265637420783d2236302220793d22313230222077696474683d22323330225f820152602072103432b4b3b43a1e91199811103334b6361e9160691b910152565b61339c60338092611519565b6133a58161334d565b0190565b7f222072783d223822207472616e73666f726d3d22726f74617465282d313520315f8201526020691b9a9018999a9491179f60b11b910152565b6133ef602a8092611519565b6133f8816133a9565b0190565b7f3c706f6c79676f6e20706f696e74733d223134302c313030203132352c3835205f820152602074189a18161b9810189a9a961c1a91103334b6361e9160591b910152565b61344d60358092611519565b613456816133fc565b0190565b60207f2f3e000000000000000000000000000000000000000000000000000000000000917f22207472616e73666f726d3d22726f74617465282d33302031343020383529225f8201520152565b6134b360228092611519565b6134bc8161345a565b0190565b7f3c706f6c79676f6e20706f696e74733d223231302c313130203139352c3935205f820152602074191898161c181019191a961c9a91103334b6361e9160591b910152565b61351160358092611519565b61351a816134c0565b0190565b60207f3e00000000000000000000000000000000000000000000000000000000000000917f22207472616e73666f726d3d22726f746174652834352032313020393529222f5f8201520152565b61357760218092611519565b6135808161351e565b0190565b7f3c636972636c652063783d22313430222063793d2238352220723d22362220665f82015260206c34b6361e913bb434ba3291179f60991b910152565b6135cd602d8092611519565b6135d681613584565b0190565b7f3c636972636c652063783d22323130222063793d2239352220723d22362220665f82015260206c34b6361e913bb434ba3291179f60991b910152565b613623602d8092611519565b61362c816135da565b0190565b7f3c6c696e652078313d22313735222079313d22313630222078323d22313735225f820152602071103c991e91199818111039ba3937b5b29e9160711b910152565b61367e60328092611519565b61368781613630565b0190565b7f22207374726f6b652d77696474683d223222207374726f6b652d6461736861725f82015260206a3930bc9e911a961a91179f60a91b910152565b6136d2602b8092611519565b6136db8161368b565b0190565b7f3c6c696e652078313d223635222079313d22323330222078323d2232383522205f8201526020703c991e91191998111039ba3937b5b29e9160791b910152565b61372c60318092611519565b613735816136df565b0190565b7f3c7465787420783d223137352220793d2233352220746578742d616e63686f725f8201527f3d226d6964646c652220666f6e742d66616d696c793d22417269616c2220666f60208201527f6e742d73697a653d2231382220666f6e742d7765696768743d22626f6c642220604082015260606c3334b6361e913bb434ba32911f60991b910152565b6137ce606d8092611519565b6137d781613739565b0190565b5f70714e499027a822a722a21e17ba32bc3a1f60791b910152565b61380260118092611519565b61380b816137db565b0190565b60407f6e742d73697a653d223134222066696c6c3d227768697465223e000000000000917f3c7465787420783d223137352220793d2236302220746578742d616e63686f725f8201527f3d226d6964646c652220666f6e742d66616d696c793d22417269616c2220666f60208201520152565b61388e605a8092611519565b6138978161380f565b0190565b5f7f4f726967696e616c2056616c75653a2024000000000000000000000000000000910152565b6138ce60118092611519565b6138d78161389b565b0190565b5f7f3c2f746578743e00000000000000000000000000000000000000000000000000910152565b61390e60078092611519565b613917816138db565b0190565b60407f6f6e742d73697a653d223130222066696c6c3d227768697465223e0000000000917f3c7465787420783d223137352220793d223332302220746578742d616e63686f5f8201527f723d226d6964646c652220666f6e742d66616d696c793d22417269616c22206660208201520152565b61399a605b8092611519565b6139a38161391b565b0190565b5f7f556e777261707065642062793a20000000000000000000000000000000000000910152565b6139da600e8092611519565b6139e3816139a7565b0190565b60407f6f6e742d73697a653d223130222066696c6c3d227768697465223e0000000000917f3c7465787420783d223137352220793d223333352220746578742d616e63686f5f8201527f723d226d6964646c652220666f6e742d66616d696c793d22417269616c22206660208201520152565b613a66605b8092611519565b613a6f816139e7565b0190565b5f7f556e777261707065642050726573656e74202300000000000000000000000000910152565b613aa660138092611519565b613aaf81613a73565b0190565b5f7f3c2f7376673e0000000000000000000000000000000000000000000000000000910152565b613ae660068092611519565b613aef81613ab3565b0190565b613cbc9a613c8c613c87613cc69f9c613cc19f98613c78613c73613cb69f93613cb19f613cac9f613ca79f613c8297613ca19f613c9c9f613c979f613c929f613c49613c6d98613c43613c3e613c7d9f613c689b613c33613c2e613c29613c639e613c23613c1e613c5d9f613c589f98613c539f613c4e9f613c09613c04613bff613bfa613c399f613c1998613bef613bea613be5613be0613bdb613bf596613bd5613bd0613c139f613c0e9f90613bc5613bc0613bbb613bb6613bcb95612e20565b612e60565b612ec6565b612f06565b9061155e565b612f2c565b612f6c565b9061155e565b612f2c565b612fac565b61302a565b613084565b9061155e565b6130ea565b61312a565b61316a565b6131d0565b61325c565b6132ce565b9061155e565b613334565b613390565b9061155e565b6133e3565b613441565b9061155e565b6134a7565b613505565b9061155e565b61356b565b6135c1565b613617565b613672565b9061155e565b6136c6565b613720565b9061155e565b6136c6565b6137c2565b6137f6565b613882565b6138c2565b9061155e565b613902565b61398e565b6139ce565b9061155e565b613902565b613a5a565b613a9a565b9061155e565b613902565b613ada565b90565b613cd1610f5d565b50613cda612d0c565b90613ce3612d57565b613ceb612da2565b839192819480928181819285606001613d0390611847565b613d0c90613eef565b948660a001613d1a9061188f565b613d2390611f5e565b613d2c90611f6a565b613d3590613f98565b96608001613d429061188f565b613d4b90611f5e565b613d5490611f6a565b613d5d90613eef565b97613d66610172565b9b8c9b60208d019b613d779c613af3565b602082018103825203613d8a90826106f1565b613d939061159d565b90565b60207f6768696a6b6c6d6e6f707172737475767778797a303132333435363738392b2f917f4142434445464748494a4b4c4d4e4f505152535455565758595a6162636465665f8201520152565b613ded60406111bc565b90613dfa60208301613d96565b565b613e04613de3565b90565b613e0f613dfc565b90565b613e2f90613e1e610f5d565b50613e27613e07565b6001916145d8565b90565b90565b613e49613e44613e4e92613e32565b6105bf565b6102dc565b90565b90613e5c91016102dc565b90565b369037565b90613e89613e71836111bc565b92602080613e7f8693610a4c565b9201910390613e5f565b565b6001613e9791036102dc565b90565b90565b613eb1613eac613eb692613e9a565b6105bf565b6102dc565b90565b634e487b7160e01b5f52601260045260245ffd5b613ed9613edf916102dc565b916102dc565b908115613eea570490565b613eb9565b613ef7610f5d565b50613f14613f048261489a565b613f0e6001613e35565b90613e51565b90613f1e82613e64565b91613f27610fbc565b5060208301015b600115613f9157613f41613f6d91613e8b565b916f181899199a1a9b1b9c1cb0b131b232b360811b600a82061a8353613f67600a613e9d565b90613ecd565b80613f80613f7a5f611337565b916102dc565b14613f8b5790613f2e565b50505b90565b5050613f8e565b613fc790613fa4610f5d565b50613fc1613fb182614ca6565b613fbb6001613e35565b90613e51565b90614ec5565b90565b613fd26111d3565b90565b613fdd610f5d565b50613fe6613fca565b90565b613ff1610f5d565b50613ffb81611df6565b50614004613fd5565b9061401661401183611f5b565b612741565b6140286140225f611337565b916102dc565b115f146140465761403c6140429291613eef565b90612972565b5b90565b5050614050613fca565b614043565b61405d610f44565b50806140786140726380ac58cd60e01b610184565b91610184565b14801561409c575b90811561408c575b5090565b614096915061502e565b5f614088565b50806140b76140b1635b5e139f60e01b610184565b91610184565b14614080565b906140c891036102dc565b90565b906140d4610f83565b506140de816125d5565b92806140fa6140f46140ef5f610ff9565b61032b565b9161032b565b03614239575b508261411c6141166141115f610ff9565b61032b565b9161032b565b036141e5575b8161413d6141376141325f610ff9565b61032b565b9161032b565b036141af575b6141588261415360028490611e4c565b6118ba565b829161419661419061418a7fddf252ad1be2c89b69c2b068fc378daa952ba7f163c4a11628f55a4df523b3ef9561111d565b9261111d565b926105c2565b9261419f610172565b806141a9816103de565b0390a490565b6141e06141bc6001613e35565b6141da6141cb6003869061141b565b916141d583610758565b613e51565b9061186f565b614143565b6142036141f15f610ff9565b826141fb5f610ff9565b905f92612aae565b6142346142106001613e35565b61422e61421f6003879061141b565b9161422983610758565b6140bd565b9061186f565b614122565b6142469084908391615054565b5f614100565b6142b16142b6925f926142ac846142a761426584611431565b9461428561427d6142786008849061113f565b610758565b956007611129565b9480614299614293896102dc565b916102dc565b036142b8575b50600861113f565b6116bb565b61113f565b6116bb565b565b6142f4906142ef6142d26142cd898b9061113f565b610758565b916142e7836142e28b849061113f565b61186f565b91600861113f565b61186f565b5f61429f565b90565b5f5260205f2090565b5490565b61431381614306565b82101561432d576143256001916142fd565b910201905f90565b611200565b9081549168010000000000000000831015614362578261435a9160016143609501815561430a565b90611699565b565b6106dd565b614398906143896143786009610fc0565b614384600a849061113f565b61186f565b61439360096142fa565b614332565b565b634e487b7160e01b5f52601160045260245ffd5b6143bd6143c3919392936102dc565b926102dc565b82039182116143ce57565b61439a565b9061441e614423926144166143fa6143ea83611431565b6143f46001613e35565b906143ae565b9161441161440a86926007611129565b849061113f565b61186f565b91600861113f565b61186f565b565b634e487b7160e01b5f52603160045260245ffd5b61444281614306565b801561446357600190039061446061445a838361430a565b906116bb565b55565b614425565b5f6144e66144eb926144df6144906144806009610fc0565b61448a6001613e35565b906143ae565b6144da6144bb6144b56144ad6144a8600a889061113f565b610758565b93600961121d565b9061125d565b916144d2836144cc6009849061121d565b90611699565b91600a61113f565b61186f565b600a61113f565b6116bb565b6144fd6144f860096142fa565b614439565b565b90565b61451661451161451b926144ff565b6105bf565b6102dc565b90565b61452d614533919392936102dc565b926102dc565b9161453f8382026102dc565b92818404149015171561454e57565b61439a565b90565b61456a61456561456f92614553565b6105bf565b6102dc565b90565b614581614587919392936102dc565b926102dc565b820180921161459257565b61439a565b90565b6145ae6145a96145b392614597565b6105bf565b6102dc565b90565b6145c26145c8916102dc565b916102dc565b9081156145d3570490565b613eb9565b9190916145e3610f5d565b506145ed81612741565b6145ff6145f95f611337565b916102dc565b1461475657815f1461470a576001614658614652600461464d61464761463761462788612741565b6146316002614556565b90614572565b614641600361459a565b906145b6565b91614502565b61451e565b5b613e64565b930191602084019282908351840160208101918251935f84525b8281106146c35750505052614687575b505090565b6003905106806001146146af576002146146a2575b80614682565b6001603d9103535f61469c565b50600281603d60018194035303535f61469c565b6003600191989293980191603f828080865194848660121c168901518153018385600c1c16880151815301828460061c168701518153019116840151815301969190614672565b6001614658614751614741614731600461472c61472688612741565b91614502565b61451e565b61473b6002614556565b90614572565b61474b600361459a565b906145b6565b614653565b505050614761613fca565b90565b90565b61477b61477661478092614764565b6105bf565b6102dc565b90565b90565b61479a61479561479f92614783565b6105bf565b6102dc565b90565b90565b6147b96147b46147be926147a2565b6105bf565b6102dc565b90565b90565b6147d86147d36147dd926147c1565b6105bf565b6102dc565b90565b90565b6147f76147f26147fc926147e0565b6105bf565b6102dc565b90565b90565b61481661481161481b926147ff565b6105bf565b6102dc565b90565b90565b61483561483061483a9261481e565b6105bf565b6102dc565b90565b90565b61485461484f6148599261483d565b6105bf565b6102dc565b90565b90565b61487361486e6148789261485c565b6105bf565b6102dc565b90565b90565b61489261488d6148979261487b565b6105bf565b6102dc565b90565b6148a2610fbc565b506148ac5f611337565b90806148db6148d57a184f03e93ff9f4daa797ed6e38ed64bf6a1f010000000000000000614767565b916102dc565b1015614ab3575b806149036148fd6d04ee2d6d415b85acef81000000006147a5565b916102dc565b1015614a78575b8061492461491e662386f26fc100006147e3565b916102dc565b1015614a44575b8061494261493c6305f5e100614821565b916102dc565b1015614a13575b8061495e61495861271061485f565b916102dc565b10156149e4575b80614979614973606461487e565b916102dc565b10156149b6575b61499361498d600a613e9d565b916102dc565b101561499d575b90565b6149b1906149ab6001613e35565b90613e51565b61499a565b6149cd6149de916149c7606461487e565b90613ecd565b916149d86002614556565b90613e51565b90614980565b6149fc614a0d916149f661271061485f565b90613ecd565b91614a076004614502565b90613e51565b90614965565b614a2d614a3e91614a276305f5e100614821565b90613ecd565b91614a386008614840565b90613e51565b90614949565b614a61614a7291614a5b662386f26fc100006147e3565b90613ecd565b91614a6c6010614802565b90613e51565b9061492b565b614a9c614aad91614a966d04ee2d6d415b85acef81000000006147a5565b90613ecd565b91614aa760206147c4565b90613e51565b9061490a565b614ae4614af591614ade7a184f03e93ff9f4daa797ed6e38ed64bf6a1f010000000000000000614767565b90613ecd565b91614aef6040614786565b90613e51565b906148e2565b90565b614b12614b0d614b1792614afb565b6105bf565b6102dc565b90565b90565b60ff1690565b614b37614b32614b3c92614b1a565b6105bf565b614b1d565b90565b614b5e90614b58614b52614b6394614b1d565b916102dc565b9061166d565b6102dc565b90565b614b8590614b7f614b79614b8a946102dc565b916102dc565b90610512565b6102dc565b90565b90565b614ba4614b9f614ba992614b8d565b6105bf565b6102dc565b90565b90565b614bc3614bbe614bc892614bac565b6105bf565b614b1d565b90565b90565b614be2614bdd614be792614bcb565b6105bf565b6102dc565b90565b90565b614c01614bfc614c0692614bea565b6105bf565b614b1d565b90565b90565b614c20614c1b614c2592614c09565b6105bf565b6102dc565b90565b614c3c614c37614c41926144ff565b6105bf565b614b1d565b90565b614c58614c53614c5d92614597565b6105bf565b614b1d565b90565b614c7f90614c79614c73614c8494614b1d565b916102dc565b90610512565b6102dc565b90565b90565b614c9e614c99614ca392614c87565b6105bf565b6102dc565b90565b614cae610fbc565b50614de3614dca614cf4614ce484614cde614cd86fffffffffffffffffffffffffffffffff614afe565b916102dc565b116150d0565b614cee6007614b23565b90614b3f565b614d35614d25614d05868490614b66565b614d1f614d1967ffffffffffffffff614b90565b916102dc565b116150d0565b614d2f6006614baf565b90614b3f565b17614d73614d63614d47868490614b66565b614d5d614d5763ffffffff614bce565b916102dc565b116150d0565b614d6d6005614bed565b90614b3f565b17614daf614d9f614d85868490614b66565b614d99614d9361ffff614c0c565b916102dc565b116150d0565b614da96004614c28565b90614b3f565b17614dc481614dbe6003614c44565b90614c60565b93614b66565b614ddd614dd760ff614c8a565b916102dc565b116150d0565b1790565b90614e0c614df4836127c2565b92602080614e028693610d96565b9201910390613e5f565b565b600360fc1b90565b90614e2082612741565b811015614e3257600160209102010190565b611200565b600f60fb1b90565b614e48906102dc565b5f8114614e56576001900390565b61439a565b6f181899199a1a9b1b9c1cb0b131b232b360811b90565b614e7a614e5b565b90565b90565b614e94614e8f614e9992614e7d565b6105bf565b6102dc565b90565b60f81b90565b916020614ec3929493614ebc60408201965f830190610417565b0190610417565b565b90614ece610f5d565b508192614f00614efb614eeb6002614ee68691614556565b61451e565b614ef56002614556565b90614572565b614de7565b91614f09614e0e565b614f2084614f1a5f935f1a93611337565b90614e16565b53614f29614e37565b614f4184614f3b6001935f1a93613e35565b90614e16565b53614f69614f596002614f548491614556565b61451e565b614f636001613e35565b90614572565b945b85614f7f614f796001613e35565b916102dc565b1115614fe557614f8d614e72565b81614f98600f614e80565b16916010831015614fe057614fb4614fd492614fda941a614e9c565b614fc387918a905f1a92614e16565b53614fce6004614c28565b90614c60565b95614e3f565b94614f6b565b611200565b909293919450614ffd614ff75f611337565b916102dc565b0361501057505061500d9061159d565b90565b61502a5f92839263e22e27eb60e01b845260048401614ea2565b0390fd5b615036610f44565b5061505061504a6301ffc9a760e01b610184565b91610184565b1490565b615069615063828486916150de565b156101d1565b61507257505050565b61508c6150866150815f610ff9565b61032b565b9161032b565b145f146150b2576150ae825f918291637e27328960e01b835260048301610424565b0390fd5b6150cc5f92839263177e802f60e01b8452600484016110d2565b0390fd5b6150d8610fbc565b50151590565b91906150e8610f44565b50806151046150fe6150f95f610ff9565b61032b565b9161032b565b14159283615113575b50505090565b809192935061512a6151248461032b565b9161032b565b1490811561516c575b50918215615146575b50505f808061510d565b61516491925061515861515e91611e62565b9261032b565b9161032b565b145f8061513c565b61517891508290611d8e565b5f61513356fea2646970667358221220d9adc6768f9fc19bdd3a7681ba46847979caa30165c2bba2d9775e2a96edc4f364736f6c634300081e0033","linkReferences":{}},"methodIdentifiers":{"approve(address,uint256)":"095ea7b3","balanceOf(address)":"70a08231","getApproved(uint256)":"081812fc","getUnwrappedInfo(uint256)":"981be899","getUserNFTs(address)":"52de4ee5","isApprovedForAll(address,address)":"e985e9c5","mint(address,uint256,string,string,string,uint256,address)":"754ba455","name()":"06fdde03","ownerOf(uint256)":"6352211e","presentContract()":"3146a910","safeTransferFrom(address,address,uint256)":"42842e0e","safeTransferFrom(address,address,uint256,bytes)":"b88d4fde","setApprovalForAll(address,bool)":"a22cb465","supportsInterface(bytes4)":"01ffc9a7","symbol()":"95d89b41","tokenByIndex(uint256)":"4f6ccce7","tokenOfOwnerByIndex(address,uint256)":"2f745c59","tokenURI(uint256)":"c87b56dd","totalSupply()":"18160ddd","transferFrom(address,address,uint256)":"23b872dd","unwrappedMetadata(uint256)":"4675a510"},"id":43}