{"abi":[{"type":"constructor","inputs":[],"stateMutability":"nonpayable"},{"type":"function","name":"approve","inputs":[{"name":"to","type":"address","internalType":"address"},{"name":"tokenId","type":"uint256","internalType":"uint256"}],"outputs":[],"stateMutability":"nonpayable"},{"type":"function","name":"balanceOf","inputs":[{"name":"owner","type":"address","internalType":"address"}],"outputs":[{"name":"","type":"uint256","internalType":"uint256"}],"stateMutability":"view"},{"type":"function","name":"getApproved","inputs":[{"name":"tokenId","type":"uint256","internalType":"uint256"}],"outputs":[{"name":"","type":"address","internalType":"address"}],"stateMutability":"view"},{"type":"function","name":"getPresentInfo","inputs":[{"name":"tokenId","type":"uint256","internalType":"uint256"}],"outputs":[{"name":"","type":"tuple","internalType":"struct WrappedPresentNFT.PresentMetadata","components":[{"name":"title","type":"string","internalType":"string"},{"name":"description","type":"string","internalType":"string"},{"name":"imageType","type":"string","internalType":"string"},{"name":"value","type":"uint256","internalType":"uint256"},{"name":"sender","type":"address","internalType":"address"},{"name":"createdAt","type":"uint256","internalType":"uint256"}]}],"stateMutability":"view"},{"type":"function","name":"getUserNFTs","inputs":[{"name":"user","type":"address","internalType":"address"}],"outputs":[{"name":"","type":"uint256[]","internalType":"uint256[]"}],"stateMutability":"view"},{"type":"function","name":"isApprovedForAll","inputs":[{"name":"owner","type":"address","internalType":"address"},{"name":"operator","type":"address","internalType":"address"}],"outputs":[{"name":"","type":"bool","internalType":"bool"}],"stateMutability":"view"},{"type":"function","name":"mint","inputs":[{"name":"to","type":"address","internalType":"address"},{"name":"tokenId","type":"uint256","internalType":"uint256"},{"name":"title","type":"string","internalType":"string"},{"name":"description","type":"string","internalType":"string"},{"name":"imageType","type":"string","internalType":"string"},{"name":"value","type":"uint256","internalType":"uint256"},{"name":"sender","type":"address","internalType":"address"}],"outputs":[],"stateMutability":"nonpayable"},{"type":"function","name":"name","inputs":[],"outputs":[{"name":"","type":"string","internalType":"string"}],"stateMutability":"view"},{"type":"function","name":"ownerOf","inputs":[{"name":"tokenId","type":"uint256","internalType":"uint256"}],"outputs":[{"name":"","type":"address","internalType":"address"}],"stateMutability":"view"},{"type":"function","name":"presentContract","inputs":[],"outputs":[{"name":"","type":"address","internalType":"address"}],"stateMutability":"view"},{"type":"function","name":"presentMetadata","inputs":[{"name":"","type":"uint256","internalType":"uint256"}],"outputs":[{"name":"title","type":"string","internalType":"string"},{"name":"description","type":"string","internalType":"string"},{"name":"imageType","type":"string","internalType":"string"},{"name":"value","type":"uint256","internalType":"uint256"},{"name":"sender","type":"address","internalType":"address"},{"name":"createdAt","type":"uint256","internalType":"uint256"}],"stateMutability":"view"},{"type":"function","name":"safeTransferFrom","inputs":[{"name":"from","type":"address","internalType":"address"},{"name":"to","type":"address","internalType":"address"},{"name":"tokenId","type":"uint256","internalType":"uint256"}],"outputs":[],"stateMutability":"nonpayable"},{"type":"function","name":"safeTransferFrom","inputs":[{"name":"from","type":"address","internalType":"address"},{"name":"to","type":"address","internalType":"address"},{"name":"tokenId","type":"uint256","internalType":"uint256"},{"name":"data","type":"bytes","internalType":"bytes"}],"outputs":[],"stateMutability":"nonpayable"},{"type":"function","name":"setApprovalForAll","inputs":[{"name":"operator","type":"address","internalType":"address"},{"name":"approved","type":"bool","internalType":"bool"}],"outputs":[],"stateMutability":"nonpayable"},{"type":"function","name":"supportsInterface","inputs":[{"name":"interfaceId","type":"bytes4","internalType":"bytes4"}],"outputs":[{"name":"","type":"bool","internalType":"bool"}],"stateMutability":"view"},{"type":"function","name":"symbol","inputs":[],"outputs":[{"name":"","type":"string","internalType":"string"}],"stateMutability":"view"},{"type":"function","name":"tokenByIndex","inputs":[{"name":"index","type":"uint256","internalType":"uint256"}],"outputs":[{"name":"","type":"uint256","internalType":"uint256"}],"stateMutability":"view"},{"type":"function","name":"tokenOfOwnerByIndex","inputs":[{"name":"owner","type":"address","internalType":"address"},{"name":"index","type":"uint256","internalType":"uint256"}],"outputs":[{"name":"","type":"uint256","internalType":"uint256"}],"stateMutability":"view"},{"type":"function","name":"tokenURI","inputs":[{"name":"tokenId","type":"uint256","internalType":"uint256"}],"outputs":[{"name":"","type":"string","internalType":"string"}],"stateMutability":"view"},{"type":"function","name":"totalSupply","inputs":[],"outputs":[{"name":"","type":"uint256","internalType":"uint256"}],"stateMutability":"view"},{"type":"function","name":"transferFrom","inputs":[{"name":"from","type":"address","internalType":"address"},{"name":"to","type":"address","internalType":"address"},{"name":"tokenId","type":"uint256","internalType":"uint256"}],"outputs":[],"stateMutability":"nonpayable"},{"type":"event","name":"Approval","inputs":[{"name":"owner","type":"address","indexed":true,"internalType":"address"},{"name":"approved","type":"address","indexed":true,"internalType":"address"},{"name":"tokenId","type":"uint256","indexed":true,"internalType":"uint256"}],"anonymous":false},{"type":"event","name":"ApprovalForAll","inputs":[{"name":"owner","type":"address","indexed":true,"internalType":"address"},{"name":"operator","type":"address","indexed":true,"internalType":"address"},{"name":"approved","type":"bool","indexed":false,"internalType":"bool"}],"anonymous":false},{"type":"event","name":"BatchMetadataUpdate","inputs":[{"name":"_fromTokenId","type":"uint256","indexed":false,"internalType":"uint256"},{"name":"_toTokenId","type":"uint256","indexed":false,"internalType":"uint256"}],"anonymous":false},{"type":"event","name":"MetadataUpdate","inputs":[{"name":"_tokenId","type":"uint256","indexed":false,"internalType":"uint256"}],"anonymous":false},{"type":"event","name":"Transfer","inputs":[{"name":"from","type":"address","indexed":true,"internalType":"address"},{"name":"to","type":"address","indexed":true,"internalType":"address"},{"name":"tokenId","type":"uint256","indexed":true,"internalType":"uint256"}],"anonymous":false},{"type":"error","name":"ERC721EnumerableForbiddenBatchMint","inputs":[]},{"type":"error","name":"ERC721IncorrectOwner","inputs":[{"name":"sender","type":"address","internalType":"address"},{"name":"tokenId","type":"uint256","internalType":"uint256"},{"name":"owner","type":"address","internalType":"address"}]},{"type":"error","name":"ERC721InsufficientApproval","inputs":[{"name":"operator","type":"address","internalType":"address"},{"name":"tokenId","type":"uint256","internalType":"uint256"}]},{"type":"error","name":"ERC721InvalidApprover","inputs":[{"name":"approver","type":"address","internalType":"address"}]},{"type":"error","name":"ERC721InvalidOperator","inputs":[{"name":"operator","type":"address","internalType":"address"}]},{"type":"error","name":"ERC721InvalidOwner","inputs":[{"name":"owner","type":"address","internalType":"address"}]},{"type":"error","name":"ERC721InvalidReceiver","inputs":[{"name":"receiver","type":"address","internalType":"address"}]},{"type":"error","name":"ERC721InvalidSender","inputs":[{"name":"sender","type":"address","internalType":"address"}]},{"type":"error","name":"ERC721NonexistentToken","inputs":[{"name":"tokenId","type":"uint256","internalType":"uint256"}]},{"type":"error","name":"ERC721OutOfBoundsIndex","inputs":[{"name":"owner","type":"address","internalType":"address"},{"name":"index","type":"uint256","internalType":"uint256"}]},{"type":"error","name":"StringsInsufficientHexLength","inputs":[{"name":"value","type":"uint256","internalType":"uint256"},{"name":"length","type":"uint256","internalType":"uint256"}]}],"bytecode":{"object":"0x608060405234610027576100116101e3565b61001961002c565b61520e610499823961520e90f35b610032565b60405190565b5f80fd5b601f801991011690565b634e487b7160e01b5f52604160045260245ffd5b9061005e90610036565b810190811060018060401b0382111761007657604052565b610040565b9061008e61008761002c565b9283610054565b565b60018060401b0381116100ac576100a8602091610036565b0190565b610040565b906100c36100be83610090565b61007b565b918252565b5f7f5772617070656450726573656e74000000000000000000000000000000000000910152565b6100f9600e6100b1565b90610106602083016100c8565b565b6101106100ef565b90565b5f7f5750000000000000000000000000000000000000000000000000000000000000910152565b61014460026100b1565b9061015160208301610113565b565b61015b61013a565b90565b5f1b90565b9061017460018060a01b039161015e565b9181191691161790565b60018060a01b031690565b90565b6101a061019b6101a59261017e565b610189565b61017e565b90565b6101b19061018c565b90565b6101bd906101a8565b90565b90565b906101d86101d36101df926101b4565b6101c0565b8254610163565b9055565b6101fc6101ee610108565b6101f6610153565b90610209565b61020733600b6101c3565b565b9061021391610215565b565b9061021f91610221565b565b9061022b91610481565b565b5190565b634e487b7160e01b5f52602260045260245ffd5b9060016002830492168015610265575b602083101461026057565b610231565b91607f1691610255565b5f5260205f2090565b601f602091010490565b1b90565b919060086102a191029161029b5f1984610282565b92610282565b9181191691161790565b90565b6102c26102bd6102c7926102ab565b610189565b6102ab565b90565b90565b91906102e36102de6102eb936102ae565b6102ca565b908354610286565b9055565b5f90565b610305916102ff6102ef565b916102cd565b565b5b818110610313575050565b806103205f6001936102f3565b01610308565b9190601f8111610336575b505050565b6103426103679361026f565b90602061034e84610278565b8301931061036f575b61036090610278565b0190610307565b5f8080610331565b915061036081929050610357565b1c90565b90610391905f199060080261037d565b191690565b816103a091610381565b906002021790565b906103b28161022d565b9060018060401b038211610470576103d4826103ce8554610245565b85610326565b602090601f8311600114610408579180916103f7935f926103fc575b5050610396565b90555b565b90915001515f806103f0565b601f198316916104178561026f565b925f5b8181106104585750916002939185600196941061043e575b505050020190556103fa565b61044e910151601f841690610381565b90555f8080610432565b9193602060018192878701518155019501920161041a565b610040565b9061047f916103a8565b565b9061048f610496925f610475565b6001610475565b56fe60806040526004361015610013575b610f14565b61001d5f3561016c565b806301ffc9a71461016757806306fdde0314610162578063081812fc1461015d578063095ea7b31461015857806318160ddd1461015357806323b872dd1461014e5780632f745c59146101495780633146a9101461014457806342842e0e1461013f5780634e6088e31461013a5780634f6ccce71461013557806352de4ee5146101305780636352211e1461012b57806370a0823114610126578063754ba4551461012157806395d89b411461011c578063a22cb46514610117578063b88d4fde14610112578063c1a2f8001461010d578063c87b56dd146101085763e985e9c50361000e57610ede565b610e7c565b610e47565b610d3f565b610c30565b610bab565b610b71565b6109e0565b6109ab565b610976565b610884565b610848565b61058b565b610556565b6104dc565b6104a8565b610439565b6103e3565b610359565b6102a7565b6101f8565b60e01c90565b60405190565b5f80fd5b5f80fd5b5f80fd5b63ffffffff60e01b1690565b61019981610184565b036101a057565b5f80fd5b905035906101b182610190565b565b906020828203126101cc576101c9915f016101a4565b90565b61017c565b151590565b6101df906101d1565b9052565b91906101f6905f602085019401906101d6565b565b346102285761022461021361020e3660046101b3565b610f1c565b61021b610172565b918291826101e3565b0390f35b610178565b5f91031261023757565b61017c565b5190565b60209181520190565b90825f9392825e0152565b601f801991011690565b61027d61028660209361028b936102748161023c565b93848093610240565b95869101610249565b610254565b0190565b6102a49160208201915f81840391015261025e565b90565b346102d7576102b736600461022d565b6102d36102c2610f42565b6102ca610172565b9182918261028f565b0390f35b610178565b90565b6102e8816102dc565b036102ef57565b5f80fd5b90503590610300826102df565b565b9060208282031261031b57610318915f016102f3565b90565b61017c565b60018060a01b031690565b61033490610320565b90565b6103409061032b565b9052565b9190610357905f60208501940190610337565b565b346103895761038561037461036f366004610302565b610f5b565b61037c610172565b91829182610344565b0390f35b610178565b6103978161032b565b0361039e57565b5f80fd5b905035906103af8261038e565b565b91906040838203126103d957806103cd6103d6925f86016103a2565b936020016102f3565b90565b61017c565b5f0190565b34610412576103fc6103f63660046103b1565b90610f7a565b610404610172565b8061040e816103de565b0390f35b610178565b610420906102dc565b9052565b9190610437905f60208501940190610417565b565b346104695761044936600461022d565b610465610454610f98565b61045c610172565b91829182610424565b0390f35b610178565b90916060828403126104a3576104a0610489845f85016103a2565b9361049781602086016103a2565b936040016102f3565b90565b61017c565b346104d7576104c16104bb36600461046e565b9161100b565b6104c9610172565b806104d3816103de565b0390f35b610178565b3461050d576105096104f86104f23660046103b1565b90611129565b610500610172565b91829182610424565b0390f35b610178565b1c90565b60018060a01b031690565b6105319060086105369302610512565b610516565b90565b906105449154610521565b90565b610553600b5f90610539565b90565b346105865761056636600461022d565b610582610571610547565b610579610172565b91829182610344565b0390f35b610178565b346105ba576105a461059e36600461046e565b916111be565b6105ac610172565b806105b6816103de565b0390f35b610178565b90565b6105d66105d16105db926102dc565b6105bf565b6102dc565b90565b906105e8906105c2565b5f5260205260405f2090565b634e487b7160e01b5f52602260045260245ffd5b9060016002830492168015610628575b602083101461062357565b6105f4565b91607f1691610618565b60209181520190565b5f5260205f2090565b905f929180549061065e61065783610608565b8094610632565b916001811690815f146106b55750600114610679575b505050565b610686919293945061063b565b915f925b81841061069d57505001905f8080610674565b6001816020929593955484860152019101929061068a565b92949550505060ff19168252151560200201905f8080610674565b906106da91610644565b90565b634e487b7160e01b5f52604160045260245ffd5b906106fb90610254565b810190811067ffffffffffffffff82111761071557604052565b6106dd565b9061073a6107339261072a610172565b938480926106d0565b03836106f1565b565b5f1c90565b90565b6107506107559161073c565b610741565b90565b6107629054610744565b90565b6107716107769161073c565b610516565b90565b6107839054610765565b90565b61079190600c6105de565b9061079d5f830161071a565b916107aa6001820161071a565b916107b76002830161071a565b916107c460038201610758565b916107dd60056107d660048501610779565b9301610758565b90565b919461083561082a60a09561081c6108469961080e61083f979d9c9a9d60c08a01908a82035f8c015261025e565b9088820360208a015261025e565b90868203604088015261025e565b986060850190610417565b6080830190610337565b0190610417565b565b3461087f5761087b61086361085e366004610302565b610786565b92610872969496929192610172565b968796876107e0565b0390f35b610178565b346108b4576108b061089f61089a366004610302565b61123f565b6108a7610172565b91829182610424565b0390f35b610178565b906020828203126108d2576108cf915f016103a2565b90565b61017c565b5190565b60209181520190565b60200190565b6108f3906102dc565b9052565b90610904816020936108ea565b0190565b60200190565b9061092b61092561091e846108d7565b80936108db565b926108e4565b905f5b81811061093b5750505090565b90919261095461094e60019286516108f7565b94610908565b910191909161092e565b6109739160208201915f81840391015261090e565b90565b346109a6576109a261099161098c3660046108b9565b611364565b610999610172565b9182918261095e565b0390f35b610178565b346109db576109d76109c66109c1366004610302565b6113da565b6109ce610172565b91829182610344565b0390f35b610178565b34610a1057610a0c6109fb6109f63660046108b9565b611405565b610a03610172565b91829182610424565b0390f35b610178565b5f80fd5b5f80fd5b90610a30610a29610172565b92836106f1565b565b67ffffffffffffffff8111610a5057610a4c602091610254565b0190565b6106dd565b90825f939282370152565b90929192610a75610a7082610a32565b610a1d565b93818552602085019082840111610a9157610a8f92610a55565b565b610a19565b9080601f83011215610ab457816020610ab193359101610a60565b90565b610a15565b60e081830312610b6c57610acf825f83016103a2565b92610add83602084016102f3565b92604083013567ffffffffffffffff8111610b675781610afe918501610a96565b92606081013567ffffffffffffffff8111610b625782610b1f918301610a96565b92608082013567ffffffffffffffff8111610b5d57610b4384610b5a928501610a96565b93610b518160a086016102f3565b9360c0016103a2565b90565b610180565b610180565b610180565b61017c565b34610ba657610b90610b84366004610ab9565b95949094939193611829565b610b98610172565b80610ba2816103de565b0390f35b610178565b34610bdb57610bbb36600461022d565b610bd7610bc66118de565b610bce610172565b9182918261028f565b0390f35b610178565b610be9816101d1565b03610bf057565b5f80fd5b90503590610c0182610be0565b565b9190604083820312610c2b5780610c1f610c28925f86016103a2565b93602001610bf4565b90565b61017c565b34610c5f57610c49610c43366004610c03565b906118f4565b610c51610172565b80610c5b816103de565b0390f35b610178565b67ffffffffffffffff8111610c8257610c7e602091610254565b0190565b6106dd565b90929192610c9c610c9782610c64565b610a1d565b93818552602085019082840111610cb857610cb692610a55565b565b610a19565b9080601f83011215610cdb57816020610cd893359101610c87565b90565b610a15565b90608082820312610d3a57610cf7815f84016103a2565b92610d0582602085016103a2565b92610d1383604083016102f3565b92606082013567ffffffffffffffff8111610d3557610d329201610cbd565b90565b610180565b61017c565b34610d7157610d5b610d52366004610ce0565b9291909161190a565b610d63610172565b80610d6d816103de565b0390f35b610178565b610d95610d9e602093610da393610d8c8161023c565b93848093610632565b95869101610249565b610254565b0190565b610db09061032b565b9052565b90610e2c9060a080610dfd610deb610dd960c086015f8901518782035f890152610d76565b60208801518682036020880152610d76565b60408701518582036040870152610d76565b94610e10606082015160608601906108ea565b610e2260808201516080860190610da7565b01519101906108ea565b90565b610e449160208201915f818403910152610db4565b90565b34610e7757610e73610e62610e5d366004610302565b611ad2565b610e6a610172565b91829182610e2f565b0390f35b610178565b34610eac57610ea8610e97610e92366004610302565b611b1e565b610e9f610172565b9182918261028f565b0390f35b610178565b9190604083820312610ed95780610ecd610ed6925f86016103a2565b936020016103a2565b90565b61017c565b34610f0f57610f0b610efa610ef4366004610eb1565b90611b86565b610f02610172565b918291826101e3565b0390f35b610178565b5f80fd5b5f90565b610f2e90610f28610f18565b50611bae565b90565b606090565b610f3f9061071a565b90565b610f4a610f31565b50610f545f610f36565b90565b5f90565b610f7790610f67610f57565b50610f7181611bee565b50611c5a565b90565b90610f8e9190610f88611c79565b91611c86565b565b5f90565b5490565b610fa0610f90565b50610fab6009610f94565b90565b90565b610fc5610fc0610fca92610fae565b6105bf565b610320565b90565b610fd690610fb1565b90565b6040906110026110099496959396610ff860608401985f850190610337565b6020830190610417565b0190610337565b565b91908061102861102261101d5f610fcd565b61032b565b9161032b565b1461107f57611040908261103a611c79565b91611c96565b918261105461104e8361032b565b9161032b565b0361105e57505050565b61107b9091925f9384936364283d7b60e01b855260048501610fd9565b0390fd5b6110a261108b5f610fcd565b5f918291633250574960e11b835260048301610344565b0390fd5b9160206110c79294936110c060408201965f830190610337565b0190610417565b565b6110dd6110d86110e292610320565b6105bf565b610320565b90565b6110ee906110c9565b90565b6110fa906110e5565b90565b90611107906110f1565b5f5260205260405f2090565b9061111d906105c2565b5f5260205260405f2090565b611131610f90565b508161114d61114761114284611405565b6102dc565b916102dc565b10156111725761116f9161116561116a9260076110fd565b611113565b610758565b90565b61118c5f92839263295f44f760e21b8452600484016110a6565b0390fd5b906111a261119d83610a32565b610a1d565b918252565b6111b05f611190565b90565b6111bb6111a7565b90565b916111d292916111cc6111b3565b9261190a565b565b634e487b7160e01b5f52603260045260245ffd5b5f5260205f2090565b6111fa81610f94565b8210156112145761120c6001916111e8565b910201905f90565b6111d4565b61122990600861122e9302610512565b610741565b90565b9061123c9154611219565b90565b611247610f90565b508061126261125c611257610f98565b6102dc565b916102dc565b101561127f5761127661127c9160096111f1565b90611231565b90565b6112885f610fcd565b6112a25f92839263295f44f760e21b8452600484016110a6565b0390fd5b606090565b67ffffffffffffffff81116112c35760208091020190565b6106dd565b906112da6112d5836112ab565b610a1d565b918252565b369037565b906113096112f1836112c8565b926020806112ff86936112ab565b92019103906112df565b565b61131f61131a61132492610fae565b6105bf565b6102dc565b90565b600161133391016102dc565b90565b90611340826108d7565b811015611351576020809102010190565b6111d4565b90611360906102dc565b9052565b9061136d6112a6565b5061137782611405565b91611381836112e4565b9161138b5f61130b565b5b8061139f611399876102dc565b916102dc565b10156113d3576113ce906113c96113b7858390611129565b6113c48791849092611336565b611356565b611327565b61138c565b5092505090565b6113ec906113e6610f57565b50611bee565b90565b906113f9906110f1565b5f5260205260405f2090565b61140d610f90565b508061142961142361141e5f610fcd565b61032b565b9161032b565b146114445761143c6114419160036113ef565b610758565b90565b6114676114505f610fcd565b5f9182916322718ad960e21b835260048301610344565b0390fd5b5f7f4f6e6c792070726573656e7420636f6e74726163742063616e206d696e740000910152565b61149f601e602092610240565b6114a88161146b565b0190565b6114c19060208101905f818303910152611492565b90565b156114cb57565b6114d3610172565b62461bcd60e51b8152806114e9600482016114ac565b0390fd5b6114f760c0610a1d565b90565b52565b906115079061032b565b9052565b5190565b601f602091010490565b1b90565b919060086115389102916115325f1984611519565b92611519565b9181191691161790565b90565b919061155b611556611563936105c2565b611542565b90835461151d565b9055565b61157991611573610f90565b91611545565b565b5b818110611587575050565b806115945f600193611567565b0161157c565b9190601f81116115aa575b505050565b6115b66115db9361063b565b9060206115c28461150f565b830193106115e3575b6115d49061150f565b019061157b565b5f80806115a5565b91506115d4819290506115cb565b90611601905f1990600802610512565b191690565b81611610916115f1565b906002021790565b906116228161023c565b9067ffffffffffffffff82116116e257611646826116408554610608565b8561159a565b602090601f831160011461167a57918091611669935f9261166e575b5050611606565b90555b565b90915001515f80611662565b601f198316916116898561063b565b925f5b8181106116ca575091600293918560019694106116b0575b5050500201905561166c565b6116c0910151601f8416906115f1565b90555f80806116a4565b9193602060018192878701518155019501920161168c565b6106dd565b906116f191611618565b565b6116fd90516102dc565b90565b5f1b90565b906117115f1991611700565b9181191691161790565b9061173061172b611737926105c2565b611542565b8254611705565b9055565b611745905161032b565b90565b9061175960018060a01b0391611700565b9181191691161790565b90565b9061177b611776611782926110f1565b611763565b8254611748565b9055565b9061181560a0600561181b946117a95f82016117a35f880161150b565b906116e7565b6117c2600182016117bc6020880161150b565b906116e7565b6117db600282016117d56040880161150b565b906116e7565b6117f4600382016117ee606088016116f3565b9061171b565b61180d600482016118076080880161173b565b90611766565b0192016116f3565b9061171b565b565b9061182791611786565b565b9290946118cd946118ac6118b5926118a36118dc9a61189a6118c69861186a3361186461185e611859600b610779565b61032b565b9161032b565b146114c4565b9795939193611891429761188861187f6114ed565b9b5f8d016114fa565b60208b016114fa565b604089016114fa565b60608701611356565b608085016114fd565b60a08301611356565b6118c1600c86906105de565b61181d565b8290611caf565b6118d68161221d565b9061232d565b565b6118e6610f31565b506118f16001610f36565b90565b61190891611900611c79565b9190916123c3565b565b9161192e939161191c8482849161100b565b611924611c79565b9390919293612591565b565b61193a60c0610a1d565b90565b606090565b5f90565b5f90565b611952611930565b90602080808080808761196361193d565b81520161196e61193d565b81520161197961193d565b815201611984611942565b81520161198f611946565b81520161199a611942565b81525050565b6119a861194a565b90565b5f7f4e465420646f6573206e6f742065786973740000000000000000000000000000910152565b6119df6012602092610240565b6119e8816119ab565b0190565b611a019060208101905f8183039101526119d2565b90565b15611a0b57565b611a13610172565b62461bcd60e51b815280611a29600482016119ec565b0390fd5b90611ac4611abb6005611a3e611930565b94611a55611a4d5f830161071a565b5f88016114fa565b611a6d611a646001830161071a565b602088016114fa565b611a85611a7c6002830161071a565b604088016114fa565b611a9d611a9460038301610758565b60608801611356565b611ab5611aac60048301610779565b608088016114fd565b01610758565b60a08401611356565b565b611acf90611a2d565b90565b611b16611b1b91611ae16119a0565b50611b0f611aee826126e5565b611b08611b02611afd5f610fcd565b61032b565b9161032b565b1415611a04565b600c6105de565b611ac6565b90565b611b3090611b2a610f31565b50612748565b90565b90611b3d906110f1565b5f5260205260405f2090565b90611b53906110f1565b5f5260205260405f2090565b60ff1690565b611b71611b769161073c565b611b5f565b90565b611b839054611b65565b90565b611bab91611ba1611ba692611b99610f18565b506005611b33565b611b49565b611b79565b90565b611bb6610f18565b5080611bd1611bcb63780e9d6360e01b610184565b91610184565b14908115611bde575b5090565b611be89150612817565b5f611bda565b611bf6610f57565b50611c00816126e5565b9081611c1c611c16611c115f610fcd565b61032b565b9161032b565b14611c25575090565b611c40905f918291637e27328960e01b835260048301610424565b0390fd5b90611c4e906105c2565b5f5260205260405f2090565b611c71611c7691611c69610f57565b506004611c44565b610779565b90565b611c81610f57565b503390565b91611c949291600192612857565b565b91611cac92611ca3610f57565b509190916129a1565b90565b9081611ccb611cc5611cc05f610fcd565b61032b565b9161032b565b14611d2c57611ce49190611cde5f610fcd565b91611c96565b611cfe611cf8611cf35f610fcd565b61032b565b9161032b565b03611d0557565b611d28611d115f610fcd565b5f9182916339e3563760e11b835260048301610344565b0390fd5b611d4f611d385f610fcd565b5f918291633250574960e11b835260048301610344565b0390fd5b90565b611d5f906110c9565b90565b611d76611d71611d7b92610320565b6105bf565b6102dc565b90565b905090565b5f693d913730b6b2911d101160b11b910152565b611da3600a8092611d7e565b611dac81611d83565b0190565b611dd5611dcc92602092611dc38161023c565b94858093611d7e565b93849101610249565b0190565b5f61088b60f21b910152565b611df160028092611d7e565b611dfa81611dd9565b0190565b5f6f113232b9b1b934b83a34b7b7111d101160811b910152565b611e2460108092611d7e565b611e2d81611dfe565b0190565b60207f6536342c00000000000000000000000000000000000000000000000000000000917f22696d616765223a2022646174613a696d6167652f7376672b786d6c3b6261735f8201520152565b611e8a60248092611d7e565b611e9381611e31565b0190565b5f6e2261747472696275746573223a205b60881b910152565b611ebc600f8092611d7e565b611ec581611e97565b0190565b7f7b2274726169745f74797065223a202254797065222c202276616c7565223a205f8201526020601160f91b910152565b611f0660218092611d7e565b611f0f81611ec9565b0190565b5f62089f4b60ea1b910152565b611f2c60038092611d7e565b611f3581611f13565b0190565b60207f2000000000000000000000000000000000000000000000000000000000000000917f7b2274726169745f74797065223a202256616c7565222c202276616c7565223a5f8201520152565b611f9260218092611d7e565b611f9b81611f39565b0190565b5f7f7d2c000000000000000000000000000000000000000000000000000000000000910152565b611fd260028092611d7e565b611fdb81611f9f565b0190565b7f7b2274726169745f74797065223a202253656e646572222c202276616c7565225f8201526020621d101160e91b910152565b61201e60238092611d7e565b61202781611fdf565b0190565b7f7b2274726169745f74797065223a202243726561746564222c202276616c75655f8201526020620111d160ed1b910152565b61206a60238092611d7e565b6120738161202b565b0190565b5f7f7d00000000000000000000000000000000000000000000000000000000000000910152565b6120aa60018092611d7e565b6120b381612077565b0190565b5f7f5d7d000000000000000000000000000000000000000000000000000000000000910152565b6120ea60028092611d7e565b6120f3816120b7565b0190565b956121a161219c6121976121b79861219161218c6121876121c19e9b6121816121bc9f6121776121726121b19f6121ac9f6121a79f61216261216c9261215c6121576121526121679561214c61217c9c611d97565b90611db0565b611de5565b611e18565b90611db0565b611de5565b611e7e565b90611db0565b611de5565b611eb0565b611efa565b90611db0565b611f20565b611f86565b90611db0565b611fc6565b612012565b90611db0565b611f20565b61205e565b90611db0565b61209e565b6120de565b90565b5f7f646174613a6170706c69636174696f6e2f6a736f6e3b6261736536342c000000910152565b6121f7601d8092611d7e565b612200816121c4565b0190565b90612211612217926121eb565b90611db0565b90565b90565b61230061230f6122ec61224561224061231495612238610f31565b50600c6105de565b611ac6565b6122e761225182613561565b916122d85f8201519161227061226b602083015196611d53565b613706565b90604081015161228a612285606084016116f3565b6137e3565b906122c36122be60a06122b76122b26122ad6122a860808a0161173b565b611d56565b611d62565b61388c565b95016116f3565b6137e3565b936122cc610172565b988997602089016120f7565b602082018103825203826106f1565b613706565b6122f4610172565b92839160208301612204565b602082018103825203826106f1565b61221a565b90565b90612321906105c2565b5f5260205260405f2090565b906123439061233e60068490612317565b6116e7565b6123797ff8e1a15aba9398e019f0b49df1a4fde98ee17ae345cb5f6b5e2c27f5033e8ce791612370610172565b91829182610424565b0390a1565b9061238a60ff91611700565b9181191691161790565b61239d906101d1565b90565b90565b906123b86123b36123bf92612394565b6123a0565b825461237e565b9055565b919091826123e16123db6123d65f610fcd565b61032b565b9161032b565b1461245557612405826124006123f960058590611b33565b8690611b49565b6123a3565b91909161245061243e6124387f17307eab39ab6107e8899845ad3d59bd9653f200f220920489ca2b5937696c31936110f1565b936110f1565b93612447610172565b918291826101e3565b0390a3565b612470835f918291630b61174360e31b835260048301610344565b0390fd5b61247d906110c9565b90565b61248990612474565b90565b612495906110e5565b90565b60e01b90565b905051906124ab82610190565b565b906020828203126124c6576124c3915f0161249e565b90565b61017c565b5190565b60209181520190565b6124f7612500602093612505936124ee816124cb565b938480936124cf565b95869101610249565b610254565b0190565b909261253c90612532612549969461252860808601975f870190610337565b6020850190610337565b6040830190610417565b60608184039101526124d8565b90565b9061255e61255983610c64565b610a1d565b918252565b606090565b3d5f14612583576125783d61254c565b903d5f602084013e5b565b61258b612563565b90612581565b9193843b6125a76125a15f61130b565b916102dc565b116125b4575b5050505050565b6125ec5f6020946125f76125cf6125ca8a612480565b61248c565b9463150b7a029296986125e0610172565b998a9889978896612498565b865260048601612509565b03925af180915f926126b5575b50155f146126725750600161261f57505b5f808080806125ad565b612627612568565b90612631826124cb565b61264361263d5f61130b565b916102dc565b145f1461266957612665905f918291633250574960e11b835260048301610344565b0390fd5b50602081519101fd5b61268b612685630a85bd0160e11b610184565b91610184565b036126965750612615565b6126b1905f918291633250574960e11b835260048301610344565b0390fd5b6126d791925060203d81116126de575b6126cf81836106f1565b8101906124ad565b905f612604565b503d6126c5565b6126fc612701916126f4610f57565b506002611c44565b610779565b90565b612712906127189392611db0565b90611db0565b90565b61273a92916127469161272c610172565b948592602084019283612704565b908103825203836106f1565b565b612750610f31565b5061275a81611bee565b5061276f61276a60068390612317565b610f36565b6127776138c9565b61278861278382611d53565b6124cb565b61279a6127945f61130b565b916102dc565b146127e2576127b06127ab83611d53565b6124cb565b6127c26127bc5f61130b565b916102dc565b116127d55750506127d2906138dd565b90565b6127df925061271b565b90565b50905090565b90565b6127ff6127fa612804926127e8565b612498565b610184565b90565b61281463490649066127eb565b90565b61281f610f18565b508061283a61283461282f612807565b610184565b91610184565b14908115612847575b5090565b6128519150613949565b5f612843565b91909280801561297e575b612880575b50509061287961287e92916004611c44565b611766565b565b61288984611bee565b91806128a561289f61289a5f610fcd565b61032b565b9161032b565b141580612963575b80612949575b61292a5750916128799161287e94936128cf575b509192612867565b81849061290e6129086129027f8c5be1e5ebec7d5bd14f71427d1e84f3dd0314c0f7b2291e5b200ac8c7c3b925956110f1565b926110f1565b926105c2565b92612917610172565b80612921816103de565b0390a45f6128c7565b612945905f91829163a9fbf51f60e01b835260048301610344565b0390fd5b5061295e612958848390611b86565b156101d1565b6128b3565b50826129776129718361032b565b9161032b565b14156128ad565b508161299a61299461298f5f610fcd565b61032b565b9161032b565b1415612862565b90916129ba906129af610f57565b5082908490916139bf565b91826129d66129d06129cb5f610fcd565b61032b565b9161032b565b145f14612a47576129e681613c5b565b5b81612a026129fc6129f75f610fcd565b61032b565b9161032b565b145f14612a1757612a139150613d5c565b5b90565b82612a2a612a248461032b565b9161032b565b03612a37575b5050612a14565b612a4091613cc7565b5f80612a30565b82612a5a612a548461032b565b9161032b565b03612a65575b6129e7565b612a70838290613b40565b612a60565b90565b612a8c612a87612a9192612a75565b6105bf565b6102dc565b90565b5f7f2e2e2e0000000000000000000000000000000000000000000000000000000000910152565b612ac760038092611d7e565b612ad081612a94565b0190565b612ae190612ae692611db0565b612abb565b90565b60407f3e00000000000000000000000000000000000000000000000000000000000000917f3c7376672077696474683d2233353022206865696768743d223335302220786d5f8201527f6c6e733d22687474703a2f2f7777772e77332e6f72672f323030302f7376672260208201520152565b612b6860418092611d7e565b612b7181612ae9565b0190565b5f7f3c646566733e0000000000000000000000000000000000000000000000000000910152565b612ba860068092611d7e565b612bb181612b75565b0190565b60207f222079313d223025222078323d2231303025222079323d2231303025223e0000917f3c6c696e6561724772616469656e742069643d2267726164222078313d2230255f8201520152565b612c0e603e8092611d7e565b612c1781612bb5565b0190565b5f7f3c73746f70206f66667365743d223025222073746f702d636f6c6f723d220000910152565b612c4e601e8092611d7e565b612c5781612c1b565b0190565b5f6211179f60e91b910152565b612c7460038092611d7e565b612c7d81612c5b565b0190565b5f7f3c73746f70206f66667365743d2231303025222073746f702d636f6c6f723d22910152565b612cb460208092611d7e565b612cbd81612c81565b0190565b5f7f3c2f6c696e6561724772616469656e743e000000000000000000000000000000910152565b612cf460118092611d7e565b612cfd81612cc1565b0190565b5f7f3c2f646566733e00000000000000000000000000000000000000000000000000910152565b612d3460078092611d7e565b612d3d81612d01565b0190565b60207f696c6c3d2275726c28236772616429222072783d223230222f3e000000000000917f3c726563742077696474683d2233353022206865696768743d223335302220665f8201520152565b612d9a603a8092611d7e565b612da381612d41565b0190565b7f3c7265637420783d2237352220793d22313530222077696474683d22323030225f8201527f206865696768743d22313530222066696c6c3d22776869746522207374726f6b6020820152604062329e9160e91b910152565b612e0c60438092611d7e565b612e1581612da7565b0190565b5f7f22207374726f6b652d77696474683d2233222072783d223130222f3e00000000910152565b612e4c601c8092611d7e565b612e5581612e19565b0190565b7f3c7265637420783d2237302220793d22313330222077696474683d22323130225f820152602072103432b4b3b43a1e911a1811103334b6361e9160691b910152565b612ea860338092611d7e565b612eb181612e59565b0190565b5f691110393c1e911c11179f60b11b910152565b612ed5600a8092611d7e565b612ede81612eb5565b0190565b60207f203137352c3930203139352c313130222066696c6c3d22000000000000000000917f3c706f6c79676f6e20706f696e74733d223137352c313330203135352c3131305f8201520152565b612f3b60378092611d7e565b612f4481612ee2565b0190565b60207f203231352c313330203139352c313530222066696c6c3d220000000000000000917f3c706f6c79676f6e20706f696e74733d223137352c313330203139352c3131305f8201520152565b612fa160388092611d7e565b612faa81612f48565b0190565b7f3c636972636c652063783d22313735222063793d223133302220723d223822205f82015260206d3334b6361e913bb434ba3291179f60911b910152565b612ff8602e8092611d7e565b61300181612fae565b0190565b7f3c6c696e652078313d22313735222079313d22313530222078323d22313735225f820152602071103c991e91199818111039ba3937b5b29e9160711b910152565b61305360328092611d7e565b61305c81613005565b0190565b5f73111039ba3937b5b296bbb4b23a341e911a11179f60611b910152565b61308a60148092611d7e565b61309381613060565b0190565b7f3c6c696e652078313d223735222079313d22323235222078323d2232373522205f8201526020703c991e9119191a911039ba3937b5b29e9160791b910152565b6130e460318092611d7e565b6130ed81613097565b0190565b5f73111039ba3937b5b296bbb4b23a341e911911179f60611b910152565b61311b60148092611d7e565b613124816130f1565b0190565b7f3c7465787420783d223137352220793d2234302220746578742d616e63686f725f8201527f3d226d6964646c652220666f6e742d66616d696c793d22417269616c2220666f60208201527f6e742d73697a653d2232302220666f6e742d7765696768743d22626f6c642220604082015260606c3334b6361e913bb434ba32911f60991b910152565b6131bd606d8092611d7e565b6131c681613128565b0190565b5f7f3c2f746578743e00000000000000000000000000000000000000000000000000910152565b6131fd60078092611d7e565b613206816131ca565b0190565b60407f6e742d73697a653d223134222066696c6c3d227768697465223e000000000000917f3c7465787420783d223137352220793d2237302220746578742d616e63686f725f8201527f3d226d6964646c652220666f6e742d66616d696c793d22417269616c2220666f60208201520152565b613289605a8092611d7e565b6132928161320a565b0190565b5f7f56616c75653a2024000000000000000000000000000000000000000000000000910152565b6132c960088092611d7e565b6132d281613296565b0190565b60407f6f6e742d73697a653d223132222066696c6c3d227768697465223e0000000000917f3c7465787420783d223137352220793d223333302220746578742d616e63686f5f8201527f723d226d6964646c652220666f6e742d66616d696c793d22417269616c22206660208201520152565b613355605b8092611d7e565b61335e816132d6565b0190565b5f7f577261707065642050726573656e742023000000000000000000000000000000910152565b61339560118092611d7e565b61339e81613362565b0190565b5f7f3c2f7376673e0000000000000000000000000000000000000000000000000000910152565b6133d560068092611d7e565b6133de816133a2565b0190565b61352a6135549a61352461351f61355e9f9c6135599f989061351461350f61354e9f6135499f906135449f61353f9f6134fa6135399f6135349f9561352f9f6134ea6134e5613504976134df61351a9f6134d56134ff9a6134cf61350a9f6134c56134da956134bf6134ba6134f59f6134b06134ef9f6134a66134b5936134a061349b6134966134ca9c61349061348b6134866134816134ab9a612b5c565b612b9c565b612c02565b612c42565b90611db0565b612c68565b612ca8565b90611db0565b612c68565b612ce8565b612d28565b612d8e565b612e00565b90611db0565b612e40565b612e9c565b90611db0565b612ec9565b612f2f565b90611db0565b612c68565b612f95565b90611db0565b612c68565b612fec565b613047565b90611db0565b61307e565b6130d8565b90611db0565b61310f565b6131b1565b90611db0565b6131f1565b61327d565b6132bd565b90611db0565b6131f1565b613349565b613389565b90611db0565b6131f1565b6133c9565b90565b61367e9061356d610f31565b5061367961357e6040830151613fca565b9161366a61358f604083015161432f565b938092808683809180829361365561365061364b613646608061363f61363a60608d6135c56135c05f830151611d53565b6124cb565b6135d86135d2600f612a78565b916102dc565b115f146136815761361e61362d61360a5f6136329401515f6136046135fe600f9261130b565b91612a78565b91614530565b613612610172565b92839160208301612ad4565b602082018103825203826106f1565b61221a565b9d5b016116f3565b6137e3565b9b0161173b565b611d56565b611d62565b6137e3565b9761365e610172565b9c8d9b60208d016133e2565b602082018103825203826106f1565b61221a565b90565b5f01519d613634565b60207f6768696a6b6c6d6e6f707172737475767778797a303132333435363738392b2f917f4142434445464748494a4b4c4d4e4f505152535455565758595a6162636465665f8201520152565b6136e16040611190565b906136ee6020830161368a565b565b6136f86136d7565b90565b6137036136f0565b90565b61372390613712610f31565b5061371b6136fb565b600191614699565b90565b90565b61373d61373861374292613726565b6105bf565b6102dc565b90565b9061375091016102dc565b90565b369037565b9061377d61376583611190565b926020806137738693610a32565b9201910390613753565b565b600161378b91036102dc565b90565b90565b6137a56137a06137aa9261378e565b6105bf565b6102dc565b90565b634e487b7160e01b5f52601260045260245ffd5b6137cd6137d3916102dc565b916102dc565b9081156137de570490565b6137ad565b6137eb610f31565b506138086137f88261495b565b6138026001613729565b90613745565b9061381282613758565b9161381b610f90565b5060208301015b600115613885576138356138619161377f565b916f181899199a1a9b1b9c1cb0b131b232b360811b600a82061a835361385b600a613791565b906137c1565b8061387461386e5f61130b565b916102dc565b1461387f5790613822565b50505b90565b5050613882565b6138bb90613898610f31565b506138b56138a582614d67565b6138af6001613729565b90613745565b90614f1f565b90565b6138c66111a7565b90565b6138d1610f31565b506138da6138be565b90565b6138e5610f31565b506138ef81611bee565b506138f86138c9565b9061390a61390583611d53565b6124cb565b61391c6139165f61130b565b916102dc565b115f1461393a5761393061393692916137e3565b9061271b565b5b90565b50506139446138be565b613937565b613951610f18565b508061396c6139666380ac58cd60e01b610184565b91610184565b148015613990575b908115613980575b5090565b61398a9150615088565b5f61397c565b50806139ab6139a5635b5e139f60e01b610184565b91610184565b14613974565b906139bc91036102dc565b90565b906139c8610f57565b506139d2816126e5565b92806139ee6139e86139e35f610fcd565b61032b565b9161032b565b03613b2d575b5082613a10613a0a613a055f610fcd565b61032b565b9161032b565b03613ad9575b81613a31613a2b613a265f610fcd565b61032b565b9161032b565b03613aa3575b613a4c82613a4760028490611c44565b611766565b8291613a8a613a84613a7e7fddf252ad1be2c89b69c2b068fc378daa952ba7f163c4a11628f55a4df523b3ef956110f1565b926110f1565b926105c2565b92613a93610172565b80613a9d816103de565b0390a490565b613ad4613ab06001613729565b613ace613abf600386906113ef565b91613ac983610758565b613745565b9061171b565b613a37565b613af7613ae55f610fcd565b82613aef5f610fcd565b905f92612857565b613b28613b046001613729565b613b22613b13600387906113ef565b91613b1d83610758565b6139b1565b9061171b565b613a16565b613b3a90849083916150ae565b5f6139f4565b613ba5613baa925f92613ba084613b9b613b5984611405565b94613b79613b71613b6c60088490611113565b610758565b9560076110fd565b9480613b8d613b87896102dc565b916102dc565b03613bac575b506008611113565b611567565b611113565b611567565b565b613be890613be3613bc6613bc1898b90611113565b610758565b91613bdb83613bd68b8490611113565b61171b565b916008611113565b61171b565b5f613b93565b90565b5f5260205f2090565b5490565b613c0781613bfa565b821015613c2157613c19600191613bf1565b910201905f90565b6111d4565b9081549168010000000000000000831015613c565782613c4e916001613c5495018155613bfe565b90611545565b565b6106dd565b613c8c90613c7d613c6c6009610f94565b613c78600a8490611113565b61171b565b613c876009613bee565b613c26565b565b634e487b7160e01b5f52601160045260245ffd5b613cb1613cb7919392936102dc565b926102dc565b8203918211613cc257565b613c8e565b90613d12613d1792613d0a613cee613cde83611405565b613ce86001613729565b90613ca2565b91613d05613cfe869260076110fd565b8490611113565b61171b565b916008611113565b61171b565b565b634e487b7160e01b5f52603160045260245ffd5b613d3681613bfa565b8015613d57576001900390613d54613d4e8383613bfe565b90611567565b55565b613d19565b5f613dda613ddf92613dd3613d84613d746009610f94565b613d7e6001613729565b90613ca2565b613dce613daf613da9613da1613d9c600a8890611113565b610758565b9360096111f1565b90611231565b91613dc683613dc0600984906111f1565b90611545565b91600a611113565b61171b565b600a611113565b611567565b613df1613dec6009613bee565b613d2d565b565b613dfc91611db0565b90565b60200190565b90565b5f7f2346463642364200000000000000000000000000000000000000000000000000910152565b613e396007611190565b90613e4660208301613e08565b565b613e50613e2f565b90565b5f7f2334454344433400000000000000000000000000000000000000000000000000910152565b613e846007611190565b90613e9160208301613e53565b565b613e9b613e7a565b90565b5f7f2334354237443100000000000000000000000000000000000000000000000000910152565b613ecf6007611190565b90613edc60208301613e9e565b565b613ee6613ec5565b90565b5f7f2346464130374100000000000000000000000000000000000000000000000000910152565b613f1a6007611190565b90613f2760208301613ee9565b565b613f31613f10565b90565b5f7f2339384438433800000000000000000000000000000000000000000000000000910152565b613f656007611190565b90613f7260208301613f34565b565b613f7c613f5b565b90565b5f7f2339303133464500000000000000000000000000000000000000000000000000910152565b613fb06007611190565b90613fbd60208301613f7f565b565b613fc7613fa6565b90565b613ffd613fee91613fd9610f31565b50613fe2610172565b92839160208301613df3565b602082018103825203826106f1565b61400f614009826124cb565b91613dff565b208061404361403d7ff0cac6609fe3bdfcfc696aa5edbedf57dbe6819642571fbfa599a1f0e779dfb5613e05565b91613e05565b14614161578061407b6140757fed772990f323ab5b3d11d56495c495a6d86619e3be9c56927f1a91c8b16928ad613e05565b91613e05565b1461415557806140b36140ad7f4639789e15ff748c2ee5ad3e8ae97408e1bb54671ffe37777e5aefe1a8715a28613e05565b91613e05565b1461414957806140eb6140e57f56671827fe2ad757874a68a372e21cdf22dfb12c64ee4dcef1aa9dfbfd2b8f12613e05565b91613e05565b1461413d5761412261411c7fbe5a2f797e1e7177d57ff63b5a5bb59097624f52f2d2cfa1cc0c6b3fe919b75a613e05565b91613e05565b146141325761412f613fbf565b90565b61413a613f74565b90565b50614146613f29565b90565b50614152613ede565b90565b5061415e613e93565b90565b5061416a613e48565b90565b5f7f2346463845353300000000000000000000000000000000000000000000000000910152565b61419e6007611190565b906141ab6020830161416d565b565b6141b5614194565b90565b5f7f2336424346374600000000000000000000000000000000000000000000000000910152565b6141e96007611190565b906141f6602083016141b8565b565b6142006141df565b90565b5f7f2335423733433400000000000000000000000000000000000000000000000000910152565b6142346007611190565b9061424160208301614203565b565b61424b61422a565b90565b5f7f2346464233343700000000000000000000000000000000000000000000000000910152565b61427f6007611190565b9061428c6020830161424e565b565b614296614275565b90565b5f7f2342344537434500000000000000000000000000000000000000000000000000910152565b6142ca6007611190565b906142d760208301614299565b565b6142e16142c0565b90565b5f7f2337433444464600000000000000000000000000000000000000000000000000910152565b6143156007611190565b90614322602083016142e4565b565b61432c61430b565b90565b6143626143539161433e610f31565b50614347610172565b92839160208301613df3565b602082018103825203826106f1565b61437461436e826124cb565b91613dff565b20806143a86143a27ff0cac6609fe3bdfcfc696aa5edbedf57dbe6819642571fbfa599a1f0e779dfb5613e05565b91613e05565b146144c657806143e06143da7fed772990f323ab5b3d11d56495c495a6d86619e3be9c56927f1a91c8b16928ad613e05565b91613e05565b146144ba57806144186144127f4639789e15ff748c2ee5ad3e8ae97408e1bb54671ffe37777e5aefe1a8715a28613e05565b91613e05565b146144ae578061445061444a7f56671827fe2ad757874a68a372e21cdf22dfb12c64ee4dcef1aa9dfbfd2b8f12613e05565b91613e05565b146144a2576144876144817fbe5a2f797e1e7177d57ff63b5a5bb59097624f52f2d2cfa1cc0c6b3fe919b75a613e05565b91613e05565b1461449757614494614324565b90565b61449f6142d9565b90565b506144ab61428e565b90565b506144b7614243565b90565b506144c36141f8565b90565b506144cf6141ad565b90565b906144f76144df8361254c565b926020806144ed8693610c64565b9201910390613753565b565b90614503826124cb565b81101561451557600160209102010190565b6111d4565b60ff60f81b1690565b61452d905161451a565b90565b6145459093919361453f610f31565b50611d53565b614558614553848690613ca2565b6144d2565b91845b8061456e614568876102dc565b916102dc565b10156145af576145aa9061458b6145868583906144f9565b614523565b6145a4869161459b848b90613ca2565b905f1a926144f9565b53611327565b61455b565b509350506145bd915061221a565b90565b90565b6145d76145d26145dc926145c0565b6105bf565b6102dc565b90565b6145ee6145f4919392936102dc565b926102dc565b916146008382026102dc565b92818404149015171561460f57565b613c8e565b90565b61462b61462661463092614614565b6105bf565b6102dc565b90565b614642614648919392936102dc565b926102dc565b820180921161465357565b613c8e565b90565b61466f61466a61467492614658565b6105bf565b6102dc565b90565b614683614689916102dc565b916102dc565b908115614694570490565b6137ad565b9190916146a4610f31565b506146ae816124cb565b6146c06146ba5f61130b565b916102dc565b1461481757815f146147cb576001614719614713600461470e6147086146f86146e8886124cb565b6146f26002614617565b90614633565b614702600361465b565b90614677565b916145c3565b6145df565b5b613758565b930191602084019282908351840160208101918251935f84525b8281106147845750505052614748575b505090565b60039051068060011461477057600214614763575b80614743565b6001603d9103535f61475d565b50600281603d60018194035303535f61475d565b6003600191989293980191603f828080865194848660121c168901518153018385600c1c16880151815301828460061c168701518153019116840151815301969190614733565b60016147196148126148026147f260046147ed6147e7886124cb565b916145c3565b6145df565b6147fc6002614617565b90614633565b61480c600361465b565b90614677565b614714565b5050506148226138be565b90565b90565b61483c61483761484192614825565b6105bf565b6102dc565b90565b90565b61485b61485661486092614844565b6105bf565b6102dc565b90565b90565b61487a61487561487f92614863565b6105bf565b6102dc565b90565b90565b61489961489461489e92614882565b6105bf565b6102dc565b90565b90565b6148b86148b36148bd926148a1565b6105bf565b6102dc565b90565b90565b6148d76148d26148dc926148c0565b6105bf565b6102dc565b90565b90565b6148f66148f16148fb926148df565b6105bf565b6102dc565b90565b90565b61491561491061491a926148fe565b6105bf565b6102dc565b90565b90565b61493461492f6149399261491d565b6105bf565b6102dc565b90565b90565b61495361494e6149589261493c565b6105bf565b6102dc565b90565b614963610f90565b5061496d5f61130b565b908061499c6149967a184f03e93ff9f4daa797ed6e38ed64bf6a1f010000000000000000614828565b916102dc565b1015614b74575b806149c46149be6d04ee2d6d415b85acef8100000000614866565b916102dc565b1015614b39575b806149e56149df662386f26fc100006148a4565b916102dc565b1015614b05575b80614a036149fd6305f5e1006148e2565b916102dc565b1015614ad4575b80614a1f614a19612710614920565b916102dc565b1015614aa5575b80614a3a614a34606461493f565b916102dc565b1015614a77575b614a54614a4e600a613791565b916102dc565b1015614a5e575b90565b614a7290614a6c6001613729565b90613745565b614a5b565b614a8e614a9f91614a88606461493f565b906137c1565b91614a996002614617565b90613745565b90614a41565b614abd614ace91614ab7612710614920565b906137c1565b91614ac860046145c3565b90613745565b90614a26565b614aee614aff91614ae86305f5e1006148e2565b906137c1565b91614af96008614901565b90613745565b90614a0a565b614b22614b3391614b1c662386f26fc100006148a4565b906137c1565b91614b2d60106148c3565b90613745565b906149ec565b614b5d614b6e91614b576d04ee2d6d415b85acef8100000000614866565b906137c1565b91614b686020614885565b90613745565b906149cb565b614ba5614bb691614b9f7a184f03e93ff9f4daa797ed6e38ed64bf6a1f010000000000000000614828565b906137c1565b91614bb06040614847565b90613745565b906149a3565b90565b614bd3614bce614bd892614bbc565b6105bf565b6102dc565b90565b90565b60ff1690565b614bf8614bf3614bfd92614bdb565b6105bf565b614bde565b90565b614c1f90614c19614c13614c2494614bde565b916102dc565b90611519565b6102dc565b90565b614c4690614c40614c3a614c4b946102dc565b916102dc565b90610512565b6102dc565b90565b90565b614c65614c60614c6a92614c4e565b6105bf565b6102dc565b90565b90565b614c84614c7f614c8992614c6d565b6105bf565b614bde565b90565b90565b614ca3614c9e614ca892614c8c565b6105bf565b6102dc565b90565b90565b614cc2614cbd614cc792614cab565b6105bf565b614bde565b90565b90565b614ce1614cdc614ce692614cca565b6105bf565b6102dc565b90565b614cfd614cf8614d02926145c0565b6105bf565b614bde565b90565b614d19614d14614d1e92614658565b6105bf565b614bde565b90565b614d4090614d3a614d34614d4594614bde565b916102dc565b90610512565b6102dc565b90565b90565b614d5f614d5a614d6492614d48565b6105bf565b6102dc565b90565b614d6f610f90565b50614ea4614e8b614db5614da584614d9f614d996fffffffffffffffffffffffffffffffff614bbf565b916102dc565b1161512a565b614daf6007614be4565b90614c00565b614df6614de6614dc6868490614c27565b614de0614dda67ffffffffffffffff614c51565b916102dc565b1161512a565b614df06006614c70565b90614c00565b17614e34614e24614e08868490614c27565b614e1e614e1863ffffffff614c8f565b916102dc565b1161512a565b614e2e6005614cae565b90614c00565b17614e70614e60614e46868490614c27565b614e5a614e5461ffff614ccd565b916102dc565b1161512a565b614e6a6004614ce9565b90614c00565b17614e8581614e7f6003614d05565b90614d21565b93614c27565b614e9e614e9860ff614d4b565b916102dc565b1161512a565b1790565b600360fc1b90565b600f60fb1b90565b614ec1906102dc565b5f8114614ecf576001900390565b613c8e565b6f181899199a1a9b1b9c1cb0b131b232b360811b90565b614ef3614ed4565b90565b60f81b90565b916020614f1d929493614f1660408201965f830190610417565b0190610417565b565b90614f28610f31565b508192614f5a614f55614f456002614f408691614617565b6145df565b614f4f6002614617565b90614633565b6144d2565b91614f63614ea8565b614f7a84614f745f935f1a9361130b565b906144f9565b53614f83614eb0565b614f9b84614f956001935f1a93613729565b906144f9565b53614fc3614fb36002614fae8491614617565b6145df565b614fbd6001613729565b90614633565b945b85614fd9614fd36001613729565b916102dc565b111561503f57614fe7614eeb565b81614ff2600f612a78565b1691601083101561503a5761500e61502e92615034941a614ef6565b61501d87918a905f1a926144f9565b536150286004614ce9565b90614d21565b95614eb8565b94614fc5565b6111d4565b9092939194506150576150515f61130b565b916102dc565b0361506a5750506150679061221a565b90565b6150845f92839263e22e27eb60e01b845260048401614efc565b0390fd5b615090610f18565b506150aa6150a46301ffc9a760e01b610184565b91610184565b1490565b6150c36150bd82848691615138565b156101d1565b6150cc57505050565b6150e66150e06150db5f610fcd565b61032b565b9161032b565b145f1461510c57615108825f918291637e27328960e01b835260048301610424565b0390fd5b6151265f92839263177e802f60e01b8452600484016110a6565b0390fd5b615132610f90565b50151590565b9190615142610f18565b508061515e6151586151535f610fcd565b61032b565b9161032b565b1415928361516d575b50505090565b809192935061518461517e8461032b565b9161032b565b149081156151c6575b509182156151a0575b50505f8080615167565b6151be9192506151b26151b891611c5a565b9261032b565b9161032b565b145f80615196565b6151d291508290611b86565b5f61518d56fea26469706673582212200b29951ea0ab6e481737f2287077f66cfc892293d7bd9d73c0a98a1c5c158c7e64736f6c634300081e0033","linkReferences":{}},"methodIdentifiers":{"approve(address,uint256)":"095ea7b3","balanceOf(address)":"70a08231","getApproved(uint256)":"081812fc","getPresentInfo(uint256)":"c1a2f800","getUserNFTs(address)":"52de4ee5","isApprovedForAll(address,address)":"e985e9c5","mint(address,uint256,string,string,string,uint256,address)":"754ba455","name()":"06fdde03","ownerOf(uint256)":"6352211e","presentContract()":"3146a910","presentMetadata(uint256)":"4e6088e3","safeTransferFrom(address,address,uint256)":"42842e0e","safeTransferFrom(address,address,uint256,bytes)":"b88d4fde","setApprovalForAll(address,bool)":"a22cb465","supportsInterface(bytes4)":"01ffc9a7","symbol()":"95d89b41","tokenByIndex(uint256)":"4f6ccce7","tokenOfOwnerByIndex(address,uint256)":"2f745c59","tokenURI(uint256)":"c87b56dd","totalSupply()":"18160ddd","transferFrom(address,address,uint256)":"23b872dd"},"id":44}